:020000040800F2
:10000000E00C0020E93D00085D0200085F020008E6
:1000100063020008670200086B020008000000008D
:100020000000000000000000000000006F02000857
:100030007102000800000000730200087502000849
:10004000033E0008033E0008033E0008033E00088C
:10005000033E0008033E0008033E0008033E00087C
:10006000033E0008033E0008033E0008033E00086C
:10007000033E0008033E0008033E0008033E00085C
:10008000033E0008033E0008033E0008033E00084C
:10009000033E0008033E0008033E0008033E00083C
:1000A000033E0008033E0008033E0008033E00082C
:1000B00025110008033E0008033E0008033E000827
:1000C000033E0008033E0008033E0008033E00080C
:1000D000033E0008033E0008033E00086F120008BC
:1000E000033E0008033E0008033E000800F002F84B
:1000F00000F05AF80AA090E8000C82448344AAF168
:100100000107DA4501D100F04FF8AFF2090EBAE865
:100110000F0013F0010F18BFFB1A43F0010318473B
:10012000B83E0000D83E00000A444FF0000C10F822
:10013000013B13F0070408BF10F8014B1D1108BF65
:1001400010F8015B641E05D010F8016B641E01F805
:10015000016BF9D113F0080F1EBF10F8014BAD1C55
:100160000C1B09D16D1E58BF01F801CBFAD505E073
:1001700014F8016B01F8016B6D1EF9D59142D6D3CD
:10018000704700000023002400250026103A28BFF5
:1001900078C1FBD8520728BF30C148BF0B607047F9
:1001A0001FB51FBD10B510BD03F0B8FE1146FFF717
:1001B000F7FF00F00DF803F0D6FE03B4FFF7F2FFEF
:1001C00003BC03F0DBFE000080F3088870470000EA
:1001D00000F054F800F00AFF00F0ECFE00F0BEFE64
:1001E00000F06EFF4FF4E13000F0B8FF002013493B
:1001F00008701348134908601348144908601448EC
:10020000144908604AF6AA201349086005E04AF636
:10021000AA201149086000F05DF9F8E710B545F231
:10022000555003F0D3FC062003F0D3FC9C2003F0D0
:10023000D3FC03F0D4FC03F0D7FC10BD2D0100204B
:10024000005000083001002000780208340100202E
:1002500000F803083801002000300040704700BF5C
:10026000FEE700BFFEE700BFFEE700BFFEE7704706
:100270007047704710B500F012FF10BD10B502F0C6
:10028000C1F94FF4803002F0DDF902F01AFA0446A9
:10029000012C2BD1102001F03FFD022001F028FDA0
:1002A000002002F054FA002002F063FAA00202F0EB
:1002B00057FA4FF4E011200402F02CFA012002F06A
:1002C00035FA00BF392002F0E0F90028FAD0022008
:1002D00002F02FFA00BF02F035FA0828FBD1012006
:1002E00002F032FB01217D2002F0F6FA10BD000081
:1002F00010B58E4801F0DAFF0021042002F0ECFA7C
:100300000021012002F0E8FA72B610BD10B50446D3
:10031000FFF7EEFF206886490840B0F1005F08D182
:100320006068844908602068FFF74EFF81480068D4
:10033000804710BD70B5054600264FF48A7004460C
:100340002246E31704EB93739B10B4EB830306D0B0
:100350002146E31704EB93739B105B1C04E02046DB
:10036000C31700EB93739B109EB2324672497348D9
:1003700000F01FFD704800687149401806D07149AF
:10038000401806D07049401811D10DE001202870A6
:1003900010E06EA000F065FF00F03AFA74A000F0E3
:1003A00060FF0120287005E00120287002E0012094
:1003B000287000BF00BF70BD10B504467848407873
:1003C000012823D10020764948700846007820286B
:1003D0001CD10121734800F0D4FDB8B972480078EF
:1003E00020B971480078401C6F4908706E48007849
:1003F00060B16E480068C82804DB00206B490860C3
:10040000012000E0002008B1022020706748406809
:10041000B0F57A7F04DB002064494860012000E0E9
:10042000002028B901215F4800F0ABFD01280BD165
:100430004AF6AA205E4908605E48FFF767FF5EA0A3
:1004400000F00FFF00BFFEE710BD10B504465EA030
:1004500000F007FF6CA000F004FF7BA000F001FF9C
:1004600089A000F0FEFE98A000F0FBFEA5A000F021
:10047000F8FE55A000F0F5FEB2A000F0F2FEBBA021
:1004800000F0EFFEBFA000F0ECFECDA000F0E9FE12
:100490000320207010BD10B5044641484078012863
:1004A00017D100203E49487008460078312802D014
:1004B00032280CD105E004202070C6A000F0D1FE47
:1004C00006E001202070CAA000F0CBFE00E000BFD3
:1004D00000BF10BD10B5CD480078052822D2DFE856
:1004E00000F0030B0F13170001F021FCC748FFF7C2
:1004F00021FF01F028FC16E0C448FFF75DFF12E081
:10050000C248FFF7A2FF0EE0C048FFF7C4FF0AE0B1
:1005100001F00DFC00F082FA01F015FC0120BB494E
:10052000087000E000BF00BF10BD000000080140DF
:100530000000FE2F040000201000002000F8030837
:100540009C93BBB1F622D8DE25030EF80D0A2A2AA9
:100550002A2A2A57616974696E672E2E2E2C7265BD
:100560002D50726F6772616D6D696E672A2A2A005D
:100570000D0A2A2A2A2050726F6772616D6D696EAA
:100580006720436F6D706C65746564205375636399
:1005900065737366756C6C7921202A2A2A0D0A000E
:1005A0002401002000100140000000206C05002004
:1005B00000300040005000080A0D72756E20666120
:1005C000696C6564210D0A000D2A2A2A2A2A2A2A22
:1005D0002A2A2A2A2A2A2A2A2A2A2A2A2A2A2A2A7B
:1005E0002A2A2A2A2A2A2A2A2A2A2A2A2A2A2A2A6B
:1005F0002A2A2A2A2A2A2A2A2A2A2A2A2A2A2A2A5B
:100600002A2A0D0A000000000D2020202020202092
:1006100020202020202020202020202020202058A2
:1006200020426F6F746C6F616465722020202020FF
:1006300020202020202020202020202020202020BA
:1006400020200D0A000000000D2020202020202066
:10065000202020202020202020202020202020209A
:100660005468696E6B486F6D652020202020202023
:10067000202020202020202020202020202020207A
:1006800020200D0A000000000D2020202020202026
:10069000202020202020202020202020205665728D
:1006A00073696F6E3A56312E302E3620202020206E
:1006B000202020202020202020202020202020203A
:1006C00020200D0A000000000D20202020202020E6
:1006D0002020202020202020202020202044617461
:1006E000653A323031362E31302E31312020202003
:1006F00020202020202020202020202020202020FA
:10070000200D0A000D202020202020202020202045
:10071000202020202020205468696E6B4E657420B4
:100720005226442043656E746572202020202020CC
:1007300020202020202020202020202020200D0AE2
:1007400000000000312E446F776E6C6F61642049A9
:100750006D61676520546F20496E7465726E656CBB
:1007600020466C6173683B0D0A000000322E527502
:100770006E20546865204170706C69636174696FA4
:100780006E0D0A002A2A2A2A2A2A2A2A2A2A2A2AEC
:100790002A2A2A2A2A2A2A2A2A2A2A2A2A2A2A2AB9
:1007A0002A2A2A2A2A2A2A2A2A2A2A2A2A2A2A2AA9
:1007B0002A2A2A2A2A2A2A2A2A2A2A2A2A0D0A0000
:1007C000456E74657220596F75722043686F696356
:1007D000653A0000310D0A506C656173652043680D
:1007E0006F696365205468652046696C650D0A0071
:1007F000320D0A52756E20546865204170706C6924
:10080000636174696F6E2E2E2E0D0A002D0100207B
:100810002DE9F84F0024A046A146002000900026B4
:10082000DFF840A34FF48A7005462A46EB1705EB24
:1008300093739B10B5EB830306D02946EB1705EBAA
:1008400093739B105B1C04E02846C31700EB937363
:100850009B109FB23A46C349C34800F0AAFA4AF631
:10086000AA20C2490860BF480068C14988427DD1BA
:10087000BC48D0F80401B0F5C03F77D2002683E031
:1008800000200090B749D1F8040100F000FB804639
:100890000020B849086020E0B7490968B74A1288C3
:1008A000B44B1B6802FB031000F0FDFA28B9B148F5
:1008B0000068401CAF49086003E04FF0FF30009033
:1008C00013E0AC4800681421B0FBF1F201FB120008
:1008D00018B94AF6AA20A5490860A648006840450C
:1008E00003D2A74800780428D6D000BF009800287B
:1008F00048D1814600242FE0A248006801689E4844
:10090000006801F029FB9E49087008460078042819
:1009100014D19948006800689A49096809688842B2
:100920000CD195480068001D9349086095480068FF
:10093000001D94490860201D84B202E04FF0FF3989
:100940001BE040F6B83094FBF0F100FB114018B901
:100950004AF6AA20854908608848008808FB00F00C
:10096000A0420AD97F48D0F8040100E010E086498F
:100970000844814909688842BED800BFB9F1000F18
:1009800000D104E0701C46B2032EFFF679AF00BF21
:100990007E487449086000263AE07D48006800F00F
:1009A00082FA90BB4FF00009002421E0A346E21731
:1009B00004EB927292105AF82210754A12681019BC
:1009C00001F0CAFA6E490870097804290DD1E117BF
:1009D00004EB917189105AF821106D4A126812596E
:1009E000914202D1201D84B202E04FF0FF3907E0AE
:1009F000B4F58A7F04D26648006866498842D5D338
:100A000000BFB9F1000F01D104E0FFE7701C46B24E
:100A1000032EC2DB00BF0020BDE8F88F2DE9FE43A6
:100A20005DA207CA8DE8070000250026A9465D489B
:100A300000F0A4FD05464AF6AA204C490860002DA6
:100A400079DD59A000F00DFC2946684600F033FC22
:100A5000474844490860002081F8100100BF60E069
:100A60004B48006800F01FFA002858D13D4F8146DE
:100A70004AF6AA203D490860002421E0A046E2177A
:100A800004EB9272921057F82210414A1268101922
:100A900001F062FA3A490870097804290DD1E1178A
:100AA00004EB9171891057F82110394A12681259D4
:100AB000914202D1201D84B202E04FF0FF3907E0DD
:100AC000B4F58A7F04D23248006832498842D5D3CF
:100AD00000BF4AF6AA2025490860B9F1000F1ED1CF
:100AE0003DA000F0BEFBFFF793FE46A000F0B9FB6F
:100AF0004FA000F0B6FB42A000F0B3FB28A000F02E
:100B0000B0FB1848001D00F0ACFB3DA000F0A9FBB5
:100B10003BA000F0A6FB46A000F0A3FB03E0701C86
:100B200046B2032E9CDB00BF032E19DB4CA000F065
:100B300098FB15E0FFE7681C03D150A000F091FB83
:100B40000EE0A81C03D146A000F08BFB08E0E81CD7
:100B500003D15AA000F085FB02E05EA000F081FB0B
:100B6000BDE8FE831000002000F8030800300040BC
:100B70006E496C6F28010020300100202601002002
:100B80002C010020340100200050000849465E7707
:100B900038010020000004082020202020202020F0
:100BA000202000006C0100200D0A2A2A2A2A2A206F
:100BB000446F776E6C6F616420496D616765205387
:100BC00075636365737366756C6C7921202A2A2AB4
:100BD0002A2A0D0A000000002A2A2A2A2A2A2A2A5A
:100BE0002A2A2A2050726F6772616D6D696E672EB6
:100BF0002E2E202A2A2A2A2A2A2A2A2A2A2A2A2A57
:100C00000D0A00002A2A2050726F6772616D6D69AB
:100C10006E6720436F6D706C6574656420537563F7
:100C20006365737366756C6C7921202A2A0D0A003E
:100C30002A2A2A2A2A2A2A2A2A2A2A2A2A2A2A2A14
:100C40002A2A2A2A2A2A2A2A2A2A2A2A2A2A2A2A04
:100C50002A2A2A2A2A2A2A2A2A2A2A0D0A000000AF
:100C60000A0A0D566572696669636174696F6E2060
:100C70006661696C6564210A0D0000000A0A0D5462
:100C8000686520696D6167652073697A652069739D
:100C900020686967686572207468616E2074686591
:100CA00020616C6C6F776564207370616365206D83
:100CB000656D6F7279210A0D000000000D0A0A416E
:100CC000626F7274656420627920757365722E0A92
:100CD0000D0000000A0D4661696C656420746F2088
:100CE00072656365697665207468652066696C6500
:100CF000210A0D0038B5044601F019F8204601F02C
:100D00005BF8009001F01FF8002038BD2DE9F84392
:100D100005460E4617460024A8460420009001F020
:100D200006F8352001F09EFA9DF80000042814D141
:100D300000BF09E056F82410404601F00DF900907C
:100D400008F10408601CC4B2BC4203DA9DF800003C
:100D50000428EFD000F0F7FF02E00020BDE8F883A0
:100D60009DF80000042801D10120F7E70020F5E7F5
:100D7000F8B504460D4626460420009000F0D7FF43
:100D8000352001F06FFA9DF80000042807D12946AC
:100D9000304601F0E1F8009000F0D5FF01E00020BE
:100DA000F8BD9DF80000042801D10120F8E70020DB
:100DB000F6E730B503461C46002005E0256841F8FB
:100DC0002050241D451CE8B29042F7DB30BD2DE9D0
:100DD000F04700240025012602274FF004084FF0B9
:100DE000010901F010FA05463B48006828403A49DD
:100DF0000968884246D001F002FA04463648006885
:100E000028433549086001F05CF8814632480068A3
:100E1000401C05D030480068C04301F012F98146FB
:100E200004F00700072811D014F0010F00D10026AC
:100E300014F0020F00D1002714F0040F01D14FF07D
:100E4000000842463946304601F0ADF9B9F1040FC9
:100E500014D122A000F005FA284800F002FA00BFE1
:100E60002748006800F4E06026490843001D244933
:100E70000860BFF3408F00BF00BFFEE722A000F074
:100E8000F0F902E02BA000F0ECF9BDE8F08701B525
:100E9000002000994A05520D03D0012202EBD12017
:100EA00000E0C80A08BD70B505464FF0FF360024C3
:100EB00000BF0CE0284600F07FFF27490870084675
:100EC0000078042801D1002603E0601C44B2032C02
:100ED000F0DB00BF304670BD080000205772697417
:100EE000652050726F74656374696F6E20646973F6
:100EF00061626C65642E2E2E0D0A00008C3F000886
:100F00000CED00E00000FA054572726F723A20465F
:100F10006C61736820777269746520756E70726F8A
:100F200074656374696F6E206661696C65642E2EEA
:100F30002E0D0A00466C617368206D656D6F7279C5
:100F4000206E6F742077726974652070726F74659B
:100F5000637465640D0A00002C01002008B50121AE
:100F6000102001F0B9FC0120ADF8000048208DF8F8
:100F7000030003208DF8020069460D4801F0F6F9E0
:100F800008BD70B504460D462946204601F07FFA9B
:100F900058B90A2000F060F82946204601F077FA97
:100FA00008B9002070BD0120FCE70120FAE700002D
:100FB0000010014008B50121042001F08DFC4FF420
:100FC0008050ADF8000010208DF8030003208DF84C
:100FD00002006946044801F0C9F94FF48051024803
:100FE00001F06FFA08BD00000008014030B500BFF5
:100FF0002F4800684FF47A72B0FBF2F1B1F1807FB4
:1010000001D301201DE021F07F40401E4FF0E0227F
:10101000506150170F22002807DA13071D0E254BC9
:1010200000F00F04241F1D5503E013071C0E224B74
:101030001C5400BF00204FF0E02290610720106197
:1010400000200028D4D14FF0E020006920F00100FA
:101050004FF0E021086130BD184908604FF0E021F1
:10106000096941F001014FF0E022116100BF13490D
:1010700009680029FBD170474FF47A7141430F4A48
:1010800011604FF0E021096941F001014FF0E022C9
:10109000116100BF094909680029FBD17047074861
:1010A000006820B105480068401E04490860704788
:1010B0005801002018ED00E000E400E00C000020E2
:1010C0001FB54FF47A740121084601F012FC601E2E
:1010D00080B2ADF808004720ADF804000020ADF85C
:1010E0000A00ADF8060001A9E00601F031FD1C2060
:1010F0008DF8000001208DF801008DF802008DF8B8
:101100000300684600F08BFD0021E00602F010FBB2
:1011100001221146900702F092F80121880702F09F
:1011200073F81FBD10B500240121880702F035FBBC
:10113000012810D10121800702F040FB00BF08E028
:10114000054850F82400401C034941F82400601C65
:1011500084B2052CF4DB10BD6C05002010B586B000
:1011600004460121082001F0B7FB0121880401F0A9
:10117000C0FBA74802F026FB4FF48060ADF81400D6
:1011800018208DF8170003208DF8160005A9A14836
:1011900001F0ECF84FF40060ADF8140004208DF875
:1011A000170005A99B4801F0E1F801940020ADF873
:1011B0000800ADF80A00ADF80C00ADF810000C20E6
:1011C000ADF80E0001A9924802F03FFB27208DF8F0
:1011D000000001208DF8010000208DF802000120A0
:1011E0008DF80300684600F01AFD012240F22551F7
:1011F000874802F0C2FB0121854802F0B2FB402182
:10120000834802F096FC06B010BD70B505460E4648
:1012100000240DE000BF40217D4802F07DFC002845
:10122000F9D0285781B27A4802F008FC601C84B2D9
:10123000B442EFDB70BD70B5044600250DE000BF81
:101240004021734802F068FC0028F9D0605781B251
:101250006F4802F0F3FB681C85B2605D0028EED198
:1012600070BD10B504462046FFF7E5FF10BD10B570
:1012700040F22551664802F065FC68B140F2255104
:10128000634802F089FC624802F0DCFBC4B26248A9
:10129000047001206049487010BD10B50446214615
:1012A0005B4802F0CBFB00BF8021594802F034FCC0
:1012B0000028F9D010BDF0B5584A002500240023BD
:1012C00020E0B1FBF2F6303606F0FF0C2E466D1C26
:1012D00000F806C0B1FBF2F602FB16110A26B2FBBB
:1012E000F6F26E1E865D302E01D1012600E000264A
:1012F0000CB9012700E000273E4201D0002500E0A4
:10130000641C5B1C0A2BDCD3F0BD70B502460C4696
:101310000021002500231078302843D15078782808
:1013200002D0507858283DD1907808B9002070BD7F
:10133000022130E0505C10B9236001252DE0505CA3
:10134000412802DB505C46280BDD505C612802DB43
:10135000505C662805DD505C302819DB505C39286C
:1013600016DC505C302805DB505C392802DC505C10
:1013700030380AE0505C412805DB505C462802DC2E
:10138000505C373801E0505C573800EB031301E044
:10139000002502E0491C0B29CCD300BF0B2934D314
:1013A000002532E000212AE0505C10B923600125BD
:1013B00027E0505C6B2802D0505C4B2804D119B157
:1013C0009B02236001251CE0505C6D2802D0505C1C
:1013D0004D2804D119B11B052360012511E0505C93
:1013E000302809DB505C392806DC505C303803EBD0
:1013F000830600EB460301E0002502E0491C0B29AF
:10140000D2D300BF0B2900D3002528468FE7000068
:1014100000480040000C01402401002000CA9A3B13
:1014200002460BE0FE484078012807D10020FC4B23
:101430005870184600781070002070470800A1F11D
:101440000101EFD1401EF8E710B504462046FFF732
:1014500024FF002010BD30B502460B4600200021BD
:1014600016E012F8015B80EA052008210EE010F476
:10147000004F05D041F2210484EA4004A0B203E009
:101480004FF6FF7404EA40004C1EA1B20029EED1D1
:101490001C00A3F10105ABB2E3D130BD2DE9F84347
:1014A00004460E4690464FF0000900203060414649
:1014B0006846FFF7B5FF18B14FF0FF30BDE8F8837D
:1014C0009DF80000182813D006DC012809D0022856
:1014D00009D0042820D109E041281AD061281BD165
:1014E00018E080251BE04FF4806518E00020E5E758
:1014F00041466846FFF794FF40B99DF80000182860
:1015000004D14FF0FF3030600020D7E74FF0FF30BC
:10151000D4E700BF0120D1E74FF0FF30CEE700BF96
:101520009DF800002070012709E0E0194146FFF70F
:1015300077FF10B14FF0FF30C0E7781C87B2681D0D
:101540008742F2DB6178A07880F0FF00814202D010
:101550004FF0FF30B2E72946E01CFFF77CFF8146E1
:10156000281D215CE81C205C41EA0020484502D08F
:101570006FF00500A2E7356000209FE72DE9F04FEE
:10158000ADF22C4D074600200090A64E03908346F6
:10159000019000BF4FF0000800200290B94600BF44
:1015A0004AF6AA20A04908604FF4801204A909A8AD
:1015B000FFF774FF10B1012874D1E5E04FF0000B84
:1015C0000498B0F1FF3F01D070B907E00620FFF7A3
:1015D0003BFF00200DF22C4DBDE8F08F0620FFF7F9
:1015E00033FF01200290CDE09DF8250008F0FF01B7
:1015F000884203D01520FFF727FFC3E0B8F1000FA2
:1016000079D14AF6AA20884908609DF82700002869
:1016100073D000250DF1270408E021788348415557
:1016200014F8012B28466D1C81490A54207808B112
:10163000FF2DF2DD00217D48415500207C494855B1
:101640000025641C05E014F8012B28466D1C05A933
:101650000A542078202801D0102DF4DB00222846DF
:101660006D1C05A90A54694605A8FFF74EFE6F498F
:10167000091F0098C1F804010098B0F5C03F08DBCD
:101680001820FFF7E1FE1820FFF7DEFE4FF0FF30D5
:10169000A0E70098FFF7FBFB664908600020664959
:1016A000086017E079E065490988634A126801FB20
:1016B0000260FFF7F8FB40B11820FFF7C5FE1820C5
:1016C000FFF7C2FE6FF0010084E75B480068401C32
:1016D000594908605848006856490968884203D249
:1016E000574800780428DED00620FFF7ADFE4320DF
:1016F000FFF7AAFE42E007E0FFE70620FFF7A4FE9F
:101700000120029003903DE00DF127014846049A24
:1017100002F08AFB4B4807604FF0000A23E049487B
:1017200000680168304600F017FC4549087008461B
:10173000007804280ED14349306809680968884256
:1017400008D1361D3F480068001D3E4908600AF177
:10175000040A08E01820FFF777FE1820FFF774FE50
:101760006FF0010036E70498824504DA2D490098AD
:101770000844B042D3D80620FFF766FE08F10108FE
:101780000120019000BF1CE01820FFF75DFE18202B
:10179000FFF75AFE6FF002001CE70198002801DDF8
:1017A0000BF1010BBBF1050F07DD1820FFF74CFE15
:1017B0001820FFF749FE00200CE74320FFF744FE06
:1017C00000BF00BF029800283FF4EAAE00BF00BF90
:1017D000039800283FF4DEAE00BF00BF0098F9E692
:1017E0000146002070472DE9FE4305460F4690460E
:1017F0000120287000206870FF20A870002404E0F9
:10180000395DE01C2954601C84B2385D08B1FF2C9E
:10181000F6DD0021E01C29546846D8F8001013E0DA
:10182000240100200078020800300040140000204D
:10183000800500203C010020280100202601002016
:101840002C01002040010020FFF735FD0026201D5F
:1018500084B208E03046711C8EB21DF8002020468C
:10186000611C8CB22A541DF806000028F2D12646CD
:1018700003E00020A855701C86B2832EF9DBBDE87A
:10188000FE83F0B5074614461D46B5F5806F02D3BA
:101890004FF4806C01E04FF0800C63469D4201D212
:1018A000AC4600E09C461FFA8CF2B3F5806F04D181
:1018B0004FF0020C81F800C003E04FF0010C81F8FA
:1018C00000C04C706FEA040C81F802C03E46032051
:1018D00007E016F801CB01F800C000F1010C1FFA77
:1018E0008CF002F1030C6045F3DB9A420EDC1FFA28
:1018F0008CF007E04FF01A0C01F800C000F1010C69
:101900001FFA8CF003F1030C6045F3DBF0BD10B55A
:1019100003460C46194644F4807200BF4900520049
:1019200012F4807F00D0491C11F4803F02D041F2B4
:101930002100414012F4803FF0D088B210BDF0B5D4
:1019400005460E460024AF1905E015F8011BA0B2AC
:10195000FFF7DDFF0446BD42F7D3A0B20021FFF739
:10196000D6FF044620460021FFF7D1FF044620465B
:10197000F0BD30B502460023541802E012F8015BB6
:101980002B44A242FAD3D8B230BD70B505460E46FC
:10199000002404E0285DFFF757FD601C84B2B442C8
:1019A000F8DB70BD2DE9F74FADF5A36D0020019078
:1019B000814600248046002606E0DDF81C05805D97
:1019C00004A98855701CC6B2FF2EF6DB01200190D9
:1019D0000DF5A46204A944A8FFF705FF00BF832109
:1019E00044A8FFF7D2FF019860B180210DF21310D7
:1019F000FFF7A5FF05462812FFF726FDE8B2FFF71F
:101A000023FD08E080210DF21310FFF7B2FF0390D1
:101A10000398FFF719FD42F2107102A8FFF700FDCD
:101A200030B99DF80800062803D14FF0010800E006
:101A3000641CB8F1000F01D10A2CD0D30A2C04D3B6
:101A4000E0B20DF2245DBDE8F08FDDF818A5DDF8F9
:101A500020954FF0010B59E00BF0FF024B4644A9D3
:101A60005046FFF70EFF4FF0000800208DF80800E9
:101A7000002400BFB9F5806F02D34FF4806700E007
:101A80008027F81C81B244A8FFF77FFF019860B15E
:101A900039460DF21310FFF752FF05462812FFF7E3
:101AA000D3FCE8B2FFF7D0FC08E039460DF2131082
:101AB000FFF75FFF03900398FFF7C6FC544902A8A5
:101AC000FFF7AEFCC0B99DF80800062814D14FF00E
:101AD0000108B9450CD9BA44A9EB0709BBF1620F5B
:101AE00001D1FF20ADE70BF101001FFA80FB04E0FC
:101AF000BA444FF0000900E0641CB8F1000F01D1B6
:101B00000A2CB7D30A2C01D3E0B29AE7B9F1000F3F
:101B1000A2D14FF0000800208DF80800002400BF7B
:101B20000420FFF791FC42F2107102A8FFF778FC45
:101B300030B99DF80800062802D14FF0010800E0F6
:101B4000641CB8F1000F01D10A2CE9D30A2C01D38F
:101B5000E0B276E74FF0000800208DF8080000247E
:101B600001208DF8100100208DF81101FF208DF863
:101B70001201032604E0002044A98855701CC6B257
:101B8000832EF8DB00BF832144A8FFF7FEFE8021EF
:101B90000DF21310FFF7D3FE05462812FFF754FC91
:101BA000E8B2FFF751FC42F2107102A8FFF738FCCF
:101BB00030B99DF80800062803D14FF0010800E075
:101BC000641CB8F1000F01D10A2CDCD30A2C01D31C
:101BD000E0B236E700BF0420FFF736FC42F2107196
:101BE00002A8FFF71DFC30B99DF80800062802D1B5
:101BF0004FF0010800E0641CB8F1000F01D10A2C7D
:101C0000E9D30A2C01D3E0B21BE7002019E700005A
:101C1000A086010031490143314A1160704770B517
:101C2000002100230F22C4780CB32D4C246804F447
:101C3000E064C4F5E064210AC1F10403CA404478B9
:101C400004FA03F18478144021430901254C0678F5
:101C5000A155047804F01F050124AC4005786D11EE
:101C60004FF0E02606EB8505C5F8004109E0047851
:101C700004F01F050124AC401B4D0678761145F891
:101C8000264070BD194A0A400243154B1B1F1A60BB
:101C9000704739B1124A121D12680243104B1B1DC6
:101CA0001A6006E00E4A121D126882430C4B1B1D7F
:101CB0001A607047042808D14FF0E021096941F00B
:101CC00004014FF0E022116107E04FF0E0210969C3
:101CD00021F004014FF0E022116170470000FA0585
:101CE0000CED00E000E400E080E100E080FFFF1F79
:101CF00001460020FE4A106800F0380008431060DA
:101D00007047FB49096821F00801F94A1160114642
:101D10000968014311607047F549096821F0100115
:101D2000F34A116011460968014311607047F14898
:101D3000EF494860F04848607047EE48EC49486019
:101D4000ED4848607047EA48006940F08000E84983
:101D500008617047E648006940F08000E449086186
:101D600070470420E249C96811F0010F01D0012039
:101D70000EE0DF49C96811F0040F01D0022007E02E
:101D8000DB49C96811F0100F01D0032000E00420E6
:101D9000704700B502460423FFF7E3FF034603E064
:101DA000FFF7DFFF0346521E012B01D1002AF7D1B6
:101DB00002B90523184600BD30B5044604254FF48A
:101DC0003020FFF7E6FF0546042D17D1C84800690B
:101DD00040F00200C649086108464461006940F0CD
:101DE000400008614FF43020FFF7D3FF0546C0489C
:101DF000006941F6FD710840BD490861284630BDC3
:101E000010B504244FF43020FFF7C3FF0446042C20
:101E100016D1B748006940F00400B549086108468A
:101E2000006940F0400008614FF43020FFF7B1FF37
:101E30000446AF48006941F6FB710840AC490861AF
:101E4000204610BD00B502460423FFF78AFF034673
:101E500003E0FFF786FF0346521E012B01D1002A43
:101E6000F7D102B90523184600BD10B504244FF47C
:101E70003020FFF7E7FF0446042C16D19C48006988
:101E800040F004009A4908610846006940F04000AB
:101E900008614FF43020FFF7D5FF044694480069ED
:101EA00041F6FB71084092490861204610BD0020B0
:101EB0008F49C96911F0020F01D0012000E0002014
:101EC000704730B5A5250424FFF7F1FF00B10025C8
:101ED0004FF43020FFF75DFF0446042C3AD18548CB
:101EE00083498860844888600846006940F0200083
:101EF00008610846006940F0400008614FF4302056
:101F0000FFF747FF0446042C1BD17948006941F6CE
:101F1000DF710840764908610846006940F010000A
:101F2000086176480580E002FFF733FF0446052C80
:101F300010D06F48006941F6EF7108406C490861A4
:101F400008E0052C06D06A48006941F6EF710840A8
:101F500067490861204630BD78B506460C46042521
:101F600000200090E802FFF714FF0546042D24D15D
:101F70005F48006940F001005D4908613480E80273
:101F8000FFF707FF0546042D10D1B01C0090200C70
:101F900000990880E802FFF7FCFE054654480069F6
:101FA00041F6FE7108405249086106E05048006958
:101FB00041F6FE7108404E490861284678BD70B56B
:101FC00004460D460426F002FFF7E3FE0646042E03
:101FD00011D14748006940F001004549086125805A
:101FE000F002FFF7D6FE06464148006941F6FE7151
:101FF00008403F490861304670BD70B505460E4641
:102000000424E002FFF7C5FE0446042C17D139482A
:1020100037498860384888600846006940F01000F9
:1020200008612E80E002FFF7B4FE0446052C06D0BE
:102030002F48006941F6EF7108402D49086120469C
:1020400070BD2DE9F04304464FF6FF763746B046A3
:10205000B1460425E443E6B2C4F30727C4F30748B6
:102060004FEA1469E802FFF794FE0546042D49D1B2
:1020700020481F498860204888600846006940F071
:1020800010000861FF2E06D01C4808300680E802C8
:10209000FFF77FFE0546042D08D1FF2F06D0174815
:1020A0000A300780E802FFF774FE0546042D0AD1C6
:1020B000B8F1FF0F07D011480C30A0F80080E802FB
:1020C000FFF767FE0546042D0AD1B9F1FF0F07D0CF
:1020D0000A480E30A0F80090E802FFF75AFE0546C5
:1020E000052D0FD00248006941F6EF71084007E066
:1020F0000020024023016745AB89EFCD00F8FF1FA8
:10210000664908612846BDE8F08330B505460424D9
:102110004FF43020FFF73DFE0446042C41D16048C7
:102120005E4988605F4888600846006940F020008A
:1021300008610846006940F0400008614FF4302013
:10214000FFF727FE0446042C22D15448006941F6CB
:10215000DF710840514908610846006940F01000ED
:1021600008611DB100205049088002E0A5204E49B9
:1021700008804FF43020FFF70CFE0446052C10D0E9
:102180004648006941F6EF7108404449086108E09B
:10219000052C06D04148006941F6DF7108403F49EF
:1021A0000861204630BDF0B505460E4617460424AA
:1021B0003B483A4988603B488860E002FFF7E9FD08
:1021C0000446042C19D13548006940F01000334909
:1021D000086147F0F800304328433349891C0880E0
:1021E000E002FFF7D6FD0446052C06D02B48006917
:1021F00041F6EF710840294908612046F0BD2748A3
:10220000C069800870472548006A7047002023494C
:10221000096811F0200F01D0012000E00020704774
:1022200029B11E4A126902431C4B1A6104E01B4A81
:1022300012698243194B1A61704701460020012937
:1022400008D1164AD26912F0010F01D0012008E02E
:10225000002006E0114AD2680A4201D0012000E0C5
:10226000002070470D49C860704704200B49C968B9
:1022700011F0010F01D001200EE00849C96811F0EA
:10228000040F01D0022007E00449C96811F0100FC3
:1022900001D0032000E0042070470000002002402D
:1022A00023016745AB89EFCD00F8FF1F10B5044649
:1022B000CA48844208D10121042000F027FB0021F4
:1022C000042000F023FB46E0C548844208D10121E8
:1022D000082000F01BFB0021082000F017FB3AE06B
:1022E000C048844208D10121102000F00FFB0021DA
:1022F000102000F00BFB2EE0BB48844208D10121E6
:10230000202000F003FB0021202000F0FFFA22E053
:10231000B648844208D10121402000F0F7FA00219C
:10232000402000F0F3FA16E0B148844208D10121C0
:10233000802000F0EBFA0021802000F0E7FA0AE0AC
:10234000AC48844207D10121801500F0DFFA00215A
:10235000A01500F0DBFA10BD10B50121084600F011
:10236000D5FA0021012000F0D1FA10BD2DE9F0418D
:10237000024600250026002000230024002791F8B3
:1023800003C00CF00F0591F803C01CF0100F03D030
:1023900091F802C04CEA050591F800C0BCF1000FAD
:1023A00031D0146800202BE04FF0010C0CFA00F340
:1023B000B1F800C00CEA03069E4220D183004FF022
:1023C0000F0C0CFA03F7BC4305FA03FC4CEA0404B7
:1023D00091F803C0BCF1280F06D14FF0010C0CFAA4
:1023E00000FCC2F814C00AE091F803C0BCF1480F29
:1023F00005D14FF0010C0CFA00FCC2F810C0401CD3
:102400000828D1D31460B1F800C0BCF1FF0F34DD4F
:10241000546800202EE000F1080C4FF0010808FA83
:102420000CF3B1F800C00CEA03069E4221D18300F0
:102430004FF00F0C0CFA03F7BC4305FA03FC4CEA0F
:10244000040491F803C0BCF1280F05D100F1080C79
:1024500008FA0CF8C2F8148091F803C0BCF1480FD8
:1024600007D100F1080C4FF0010808FA0CF8C2F887
:102470001080401C0828CED35460BDE8F0814FF690
:10248000FF710180022181700421C17070470246F2
:10249000002093680B4201D0012000E0002070472B
:1024A0000146886880B2704702460020D3680B421C
:1024B00001D0012000E0002070470146C86880B2CA
:1024C000704701617047416170470AB1016100E0E6
:1024D00041617047C16070474FF480320A438261A6
:1024E0008161826182698269704702460020424BA5
:1024F00018684FF68073184040EA021008433E4BBC
:10250000186070473D49C8617047F0B50A4600231E
:1025100000240021002500F00046B6F1004F02D152
:10252000354EF16901E0344E7168C0F3034583B262
:1025300000F44016B6F5401F08D121F070612E4E10
:10254000766826F070662C4F7E6012E000F48016EC
:10255000B6F5801F06D1032606FA05F4A14341F023
:10256000706106E0460D360103FA06F6B14341F00C
:10257000706122B1460D360103FA06F6314300F0D0
:102580000046B6F1004F02D11B4EF16101E01A4E38
:102590007160F0BD30B500228B071C0F0F2303FACA
:1025A00004F2154B08338C1053F824309343124C2B
:1025B00008348D1044F8253023468C1053F824300D
:1025C0008C07240F00FA04F423430B4C08348D10BD
:1025D00044F8253030BD0A490860704700080140C2
:1025E000000C01400010014000140140001801409F
:1025F000001C01400020014000000140000020427A
:10260000DC002042DD48006840F00100DB49086042
:1026100008464068DA490840D849486008460068DA
:10262000D8490840D54908600846006820F4802051
:1026300008600846406820F4FE0048604FF41F0020
:1026400088607047CD49096821F48031CB4A116018
:102650001146096821F480211160B0F5803F03D054
:10266000B0F5802F0ED106E0C449096841F48031ED
:10267000C24A116007E0C149096841F4A021BF4A7C
:10268000116000E000BF00BF704710B50146002296
:10269000002300204A11012A02D1B84C236806E029
:1026A000022A02D1B54C236A01E0B44C636A01F0FE
:1026B0001F02012494401C4201D0012000E00020B0
:1026C00010BD38B5002000900024002500BF312047
:1026D000FFF7DBFF05460098401C00900098B0F51E
:1026E000A06F01D0002DF2D03120FFF7CEFF08B14E
:1026F000012400E00024204638BD014600209F4A06
:10270000106820F0F80040EAC100106070479E4950
:102710000860704702460020984B586820F47C10EF
:1027200042EA01031843954B586070479649086682
:10273000704701460020914A506820F0030008438A
:10274000506070478D48406800F00C0070470146AB
:1027500000208A4A506820F0F0000843506070471B
:1027600001460020854A506820F4E060084350602C
:10277000704701460020814A506820F4605040EACA
:10278000C1005060704729B17C4A527A02437B4BAA
:102790005A7204E0794A527A8243784B5A727047EF
:1027A0007A490860704701460020744A506820F456
:1027B00040400843506070470021754A11706F4ACD
:1027C00082F82010012802D0042808D103E001215A
:1027D0006F4A117004E005216D4A117000E000BFDE
:1027E00000BF70476B49086070476449096A01433C
:1027F000624A11627047674944390860704730B5D2
:1028000000210022002400235C4D6D6805F00C01BE
:1028100021B1042905D0082923D105E05E4D0560CA
:1028200022E05D4D05601FE0544D6D6805F47012A7
:10283000524D6D6805F48034022505EB92421CB9B7
:10284000564D554305600BE04C4D6D6815F4003F47
:1028500003D0524D5543056002E04F4D554305608E
:1028600002E04D4D056000BF00BF444D6D6805F0AE
:10287000F00109094A4D6B5C0568DD4045603F4D3C
:102880006D6805F4E061090A454D6B5C4568DD4003
:1028900085603A4D6D6805F46051C90A404D6B5C26
:1028A0004568DD40C560354D6D6805F44041890BD4
:1028B0003C4D6B5CC568B5FBF3F5056130BD29B1D6
:1028C0002E4A526902432D4B5A6104E02B4A526949
:1028D00082432A4B5A61704729B1284A92690243C0
:1028E000264B9A6104E0254A92698243234B9A6100
:1028F000704729B1214AD2690243204BDA6104E0D2
:102900001E4AD26982431D4BDA61704729B11B4AC6
:10291000D2680243194BDA6004E0184AD268824355
:10292000164BDA60704729B1144A12690243134BFF
:102930001A6104E0114A12698243104B1A61704710
:1029400014494039086070470F49C86470470B4903
:10295000C87170470948406A40F080700749486272
:10296000704701460020054A92680A4201D00120C2
:1029700000E0002070470149887270470010024053
:102980000000FFF8FFFFF6FE00004242D80042427E
:10299000201002408004424200127A0000093D00EB
:1029A000440100205401002010B50446FE48844232
:1029B00008D10121C014FFF7A9FF0021E014FFF79F
:1029C000A5FFC4E0B4F1804F08D101210846FFF70C
:1029D000AAFF00210120FFF7A6FFB8E0F3488442D8
:1029E00008D101210220FFF79EFF00210220FFF7FE
:1029F0009AFFACE0EE48844208D101210420FFF7A1
:102A000092FF00210420FFF78EFFA0E0E9488442F6
:102A100008D101210820FFF786FF00210820FFF7D9
:102A200082FF94E0E448844208D101211020FFF79E
:102A30007AFF00211020FFF776FF88E0DF4884420C
:102A400008D101212020FFF76EFF00212020FFF791
:102A50006AFF7CE0DA48844208D101214014FFF784
:102A600055FF00216014FFF751FF70E0D548844204
:102A700009D10121C804FFF749FF00214FF40020CC
:102A8000FFF744FF63E0D048844209D101210805E3
:102A9000FFF73CFF00214FF48010FFF737FF56E0AF
:102AA000CA48844209D101214805FFF72FFF0021C0
:102AB0004FF40010FFF72AFF49E0C548844208D1CF
:102AC00001214020FFF72FFF00214020FFF72BFFBF
:102AD0003DE0C048844208D101218020FFF723FF58
:102AE00000218020FFF71FFF31E0BB48844208D15E
:102AF00001218015FFF717FF0021A015FFF713FF35
:102B000025E0B648844209D101210804FFF7FEFE02
:102B100000214FF48030FFF7F9FE18E0B0488442FE
:102B200009D101214804FFF7F1FE00214FF40030E4
:102B3000FFF7ECFE0BE0AB48844208D1012188048A
:102B4000FFF7E4FE00214FF48020FFF7DFFE10BD09
:102B500000220288944B98420ED0994B98420BD099
:102B6000B0F1804F08D0914B984205D0904B9842DD
:102B700002D0904B984204D14FF68F731A404B8885
:102B80001A438D4B984207D08C4B984204D04FF695
:102B9000FF431A40CB881A4302808B8883850B88B9
:102BA0000385814B98420BD0854B984208D08B4BC4
:102BB000984205D08A4B984202D08A4B984201D164
:102BC0000B7A038601238382704770B500240022AC
:102BD0000023058C4FF6FE7635400584028C8388F1
:102BE000048B4FF68F752C40B51E2C400D882C435E
:102BF000751E2A400D892A434D882A436A4DA842F2
:102C00000BD06F4DA84208D0744DA84205D0744D2A
:102C1000A84202D0734DA84213D14FF6F7752A404F
:102C20004D892A434FF6FB752A408D882A434FF67B
:102C3000FF652B404FF6FF552B408D892B43CD89E7
:102C40002B4383800483CD888586028470BD70B554
:102C5000002400220023058C4FF6EF7635400584D2
:102C6000028C8388048B48F6FF752C404FF6FF4595
:102C70002C400D884FF6FF7606EA05252C434FF6CB
:102C8000DF752A400D8906EA05152A434D8806EAB4
:102C900005152A43444DA84202D0494DA8421DD1F2
:102CA0004FF67F752A404D894FF6FF7606EA0515E7
:102CB0002A434FF6BF752A408D8806EA05152A4338
:102CC0004FF6FF352B404FF2FF752B408D8906EAFA
:102CD00085052B43CD8906EA85052B438380048334
:102CE000CD880587028470BD70B5002400220023C2
:102CF000058C4FF6FF6635400584028C8388848BF3
:102D00004FF68F752C404FF6FC752C400D882C43E8
:102D10004FF6FF552A400D894FF6FF7606EA052546
:102D20002A434D8806EA05252A431F4DA84202D0B2
:102D3000234DA8421DD14FF2FF752A404D894FF611
:102D4000FF7606EA05252A434FF6FF352A408D888F
:102D500006EA05252A434EF6FF752B404DF6FF7512
:102D60002B408D8906EA05152B43CD8906EA05150A
:102D70002B4383808483CD888587028470BD70B5A2
:102D8000002200230024058C4EF6FF763540058492
:102D9000038C8488828B48F6FF752A404FF6FF45E6
:102DA0002A400D8820E00000002C01400004004073
:102DB00000080040000C00400010004000140040DB
:102DC00000340140004C01400050014000540140DB
:102DD00000180040001C004000200040004001405E
:102DE00000440140004801404FF6FF7606EA052501
:102DF0002A434DF6FF752B400D8906EA05352B4316
:102E00004D8806EA05352B43FA4DA84202D0FA4D0B
:102E1000A84208D14BF6FF752C408D894FF6FF76FE
:102E200006EA85152C4384808283CD88A0F8405023
:102E3000038470BD828B4FF2FF331A408283828BF2
:102E40004FF6FF7303EA01231A4382837047F0B5FC
:102E50000C461546002200210026078C4EF6FF7C0A
:102E600007EA0C070784828B018C4FF6FF7707EA8D
:102E7000043640F6FF473A404FF6FF7707EA05274A
:102E80003A434FF6FF7707EA03373A43D94FB84240
:102E90000ED0D94FB8420BD0B0F1804F08D0D74FE9
:102EA000B84205D0D64FB84202D0D64FB84206D16C
:102EB0004DF6FF77394046F48057394305E047F631
:102EC000FF57394044F48057394382830184F0BD71
:102ED000828B4FF6F3731A408283828B0A4382837C
:102EE0007047F0B50C461546002200210026078CDD
:102EF0004FF6FF6C07EA0C070784828B018C4FF6B4
:102F0000FF7707EA04264FF60C773A404FF6FF7733
:102F100007EA03172F433A43B64FB8420ED0B64FD5
:102F2000B8420BD0B0F1804F08D0B44FB84205D0B2
:102F3000B34FB84202D0B34FB84206D14FF6FF5755
:102F4000394046F48077394305E04FF2FF57394066
:102F500044F48077394382830184F0BD028B4FF2C1
:102F6000FF331A400283028B4FF6FF7303EA0123FB
:102F70001A4302837047F0B50C4615460022002123
:102F80000026078C4FF6EF7C07EA0C070784028BBC
:102F9000018C4FF6FF7707EA041640F6FF473A40E8
:102FA0004FF6FF7707EA03373A434FF6FF7707EA12
:102FB00005273A438F4FB8420ED08F4FB8420BD0FF
:102FC000B0F1804F08D08D4FB84205D08C4FB84239
:102FD00002D08C4FB84206D14FF6DF77394046F029
:102FE0001007394305E04FF65F77394044F010078A
:102FF000394302830184F0BD028B4FF6F3731A400C
:103000000283028B0A4302837047F0B50C461546D3
:1030100000220021068C4FF6FE773E400684028B8C
:10302000018C4FF60C7632407E1C06EA03162E43C6
:103030003243704EB0420ED06F4EB0420BD0B0F162
:10304000804F08D06D4EB04205D06D4EB04202D0D8
:103050006C4EB04206D14FF6FD76314044F0010689
:10306000314305E04FF6F576314044F00106314337
:1030700002830184F0BD70B505460C465D4885426B
:103080000ED05D4885420BD0B5F1804F08D05B482B
:10309000854205D05A48854202D05A48854200D11F
:1030A00000E000BF208850B92389A28861882846A3
:1030B000FFF7ABFFE1882846FFF79EFF25E0208859
:1030C00004280AD12389A28861882846FFF753FF84
:1030D000E1882846FFF742FF17E0208808280AD138
:1030E0002389A28861882846FFF7FBFEE1882846ED
:1030F000FFF7EEFE09E02389A28861882846FFF7E2
:10310000A6FEE1882846FFF795FE70BD2DE9F04147
:1031100005460C4600260127608808B9022600E013
:103120000026A088012801D1022700E0012720887D
:10313000A0B92389A28861882846FFF766FFE18845
:103140002846FFF759FF23893A4631462846FFF7BC
:1031500012FFE1882846FFF701FF13E02389A288C8
:1031600061882846FFF707FFE1882846FFF7F6FE4B
:1031700023893A4631462846FFF747FFE18828462B
:10318000FFF73AFFBDE8F0810A884B881A438B8825
:103190001A43CB881A430B891A434B891A438B89EC
:1031A0001A43A0F8442070474FF6FF718180002138
:1031B0000180C180418001727047002101804180FF
:1031C0008180C180018141818181C181704700215D
:1031D00001804180012181800021C18001817047EF
:1031E0000021018041808180C180018141818181F4
:1031F00070470000002C01400034014000040040F2
:1032000000080040000C004021B1028842F0010299
:10321000028004E002884FF6FE731A400280704775
:1032200031B1B0F8442042F40042A0F8442005E057
:10323000B0F84420C2F30E02A0F8442070471AB13F
:1032400083890B43838102E083898B4383817047A9
:103250008182704741EA0203A0F8483070471AB1F2
:1032600083890B43838102E083898B438381704789
:1032700001894FF6F8721140018170470A4600211A
:1032800001894FF68F73194011430181704730B5A2
:1032900004460D4629462046FFF7F0FF208940F0FE
:1032A0000700208130BD2DE9F04104460D46164649
:1032B0001F46602D06D13B46012231462046FFF7CE
:1032C0005AFE05E03B46012231462046FFF79DFEAF
:1032D00029462046FFF7D2FF208940F007002081D1
:1032E000BDE8F08130B50C4600210189C9B24FF626
:1032F000FF7505EA0325154325432943018130BDA8
:103300002DE9F04105460E461746984600244346EF
:103310003A4631462846FFF7E5FF2C894FF6F8700C
:10332000044044F007044FF68F70044044F07004EA
:103330002C81BDE8F081F0B504460D4616461F46C7
:103340003B46324629462046FFF7CCFF208940F411
:1033500080402081F0BD0185828270470A460021AD
:1033600001884FF68F731940114301807047F0B503
:103370000C4615461E460021002200230189028BBF
:10338000038C4FF6F877394021434FF6FC473A401B
:1033900040F201173A434FF6DD773B404FF6FF7797
:1033A00007EA06172F433B43018102830384F0BDE4
:1033B0000A460021018B4FF68F7319401143018398
:1033C00070470A460021018B48F6FF7319404FF6FB
:1033D000FF7303EA02231943018370470A46002161
:1033E000818B4FF68F7319401143818370470A46D2
:1033F0000021818B48F6FF7319404FF6FF7303EAF3
:10340000022319438183704721B1028842F0800270
:10341000028004E002884FF67F731A4002807047F2
:1034200021B1828842F00402828004E082884FF653
:10343000FB731A408280704721B1828842F00802F3
:10344000828004E082884FF6F7731A4082807047CA
:1034500021B1828842F00102828004E082884FF626
:10346000FE731A40828070470A460021018B4FF696
:10347000F77319401143018370470A460021018BFD
:103480004FF2FF7319404FF6FF7303EA022319430B
:10349000018370470A460021818B4FF6F77319406C
:1034A0001143818370470A460021818B4FF2FF73DD
:1034B00019404FF6FF7303EA0223194381837047D3
:1034C0000A460021018B4FF6FB731940114301831B
:1034D00070470A460021018B4FF6FF3319404FF623
:1034E000FF7303EA02231943018370470A46002150
:1034F000818B4FF6FB7319401143818370470A4655
:103500000021818B4FF6FF3319404FF6FF7303EA1A
:1035100002231943818370470A460021018B4FF62D
:103520007F7319401143018370470A460021018BC4
:10353000C1F30E014FF6FF7303EA0223194301831F
:1035400070470A460021818B4FF67F731940114363
:10355000818370470A460021818BC1F30E014FF62B
:10356000FF7303EA02231943818370470A4600214F
:10357000018C4FF6FD7319401143018470470A46D0
:103580000021018C4FF6F7731940114301847047F5
:103590000A460021018C4FF6DF7319404FF6FF7386
:1035A00003EA02131943018470470A460021018C83
:1035B0004FF67F7319404FF6FF7303EA0213194366
:1035C000018470470A460021018C4FF6FF531940D1
:1035D0004FF6FF7303EA02231943018470470A463A
:1035E0000021018C4FF2FF7319404FF6FF7303EA7D
:1035F00002231943018470470A460021018C4DF6CD
:10360000FF7319404FF6FF7303EA02331943018435
:10361000704730B5002301248C40A3B2048C9C4336
:103620000484048C02FA01F5ADB22C43048430BD4D
:1036300030B5002304248C40A3B2048C9C43048442
:10364000048C02FA01F5ADB22C43048430BD70B590
:103650000346002000241846183001258D40ACB2E6
:103660001D8CA5431D8409B1082909D100EB610017
:10367000056825F0700505600568154305600EE0D6
:103680000D1FC5F34E052844056825F4E045056087
:1036900005684FF6FF7606EA02263543056070BDE1
:1036A00021B1028842F00202028004E002884FF653
:1036B000FD731A400280704721B1028842F0040273
:1036C000028004E002884FF6FB731A4002807047C4
:1036D00021B1828842F08002828004E082884FF625
:1036E0007F731A408280704702884FF6F7731A4042
:1036F000028002880A430280704782884FF68F73E7
:103700001A40828082880A438280704702894FF67D
:10371000F8731A40028102890A43028170470289C4
:103720004FF67F731A40028102890A430281704773
:103730008184704781857047818670470187704713
:1037400081877047A0F84010704702884FF6FF430A
:103750001A40028002880A43028070470146888E20
:1037600070470146088F70470146888F70470146B1
:10377000B1F8400070470146888C70470146088DBB
:10378000704702460020138A0B4201D0012000E05E
:1037900000207047CA430282704730B502460020BD
:1037A00000230024158A05EA0103958905EA01042E
:1037B00013B10CB1012000E0002030BDCA430282E9
:1037C0007047000010B50446FB48844209D101212E
:1037D0008803FFF79BF800214FF48040FFF796F82D
:1037E00032E0F648844209D101214804FFF79BF8F2
:1037F00000214FF40030FFF796F825E0F0488442AE
:1038000009D101218804FFF78EF800214FF48020B0
:10381000FFF789F818E0EB48844209D10121C80478
:10382000FFF781F800214FF40020FFF77CF80BE050
:10383000E548844208D101210805FFF774F800210A
:103840004FF48010FFF76FF810BD2DE9F04786B0F8
:1038500005460E460024A24600BFA1460027B089B7
:1038600000B100BF2F462C8A4CF6FF700440F08850
:1038700004432C82AC894EF6F3100440B0883189A1
:103880000843718908430443AC81AC8A4FF6FF407A
:103890000440B0890443AC8201A8FEF7B0FFC648DB
:1038A000874202D1DDF810A001E0DDF80CA0A88964
:1038B00010F4004F08D00AEBCA0000EB0A10316880
:1038C0004900B0FBF1F807E00AEBCA0000EB0A1070
:1038D00031688900B0FBF1F86420B8FBF0F0040116
:1038E0002009642101FB1089A88910F4004F08D039
:1038F000322000EBC900B0FBF1F000F007000443F8
:1039000008E0322000EB09106421B0FBF1F000F078
:103910000F0004432C8106B0BDE8F0874FF4165128
:10392000016000218180C18001810C214181002141
:103930008181704710B502460020108A4FF2FF03C4
:1039400018400B884C8823438C882343CC8823431E
:103950001843108210BD0021018041808180C18008
:10396000704721B1828942F40052828104E0828949
:103970004DF6FF731A4082817047F0B5034600246C
:10398000002600250020A1F510676A3F00D100BF86
:103990001846C1F3421401F01F06012707FA06F585
:1039A000012C01D10C3004E0022C01D1103000E0D8
:1039B00014301AB107682F43076002E00768AF436D
:1039C0000760F0BD1AB1838A0B43838202E0838AC9
:1039D0008B4383827047028A4FF6F0731A4002824B
:1039E000028A0A430282704782894FF2FF731A40AB
:1039F000828182890A438281704721B1828942F0A3
:103A00000202828104E082894FF6FD731A408281AE
:103A10007047028A4FF6DF731A400282028A0A4315
:103A20000282704721B1028A42F48042028204E09D
:103A3000028A4BF6FF731A4002827047C1F30802F4
:103A40008280704701468888C0F3080070478189EA
:103A500041F0010181817047028BD2B20283028B57
:103A600042EA012202837047028B02F47F42028302
:103A7000028B0A430283704721B1828A42F02002FE
:103A8000828204E0828A4FF6DF731A408282704796
:103A900021B1828A42F01002828204E0828A4FF6CB
:103AA000EF731A408282704721B1828A42F0080285
:103AB000828204E0828A4FF6F7731A40828270474E
:103AC00021B1828942F40042828103E08289C2F3FB
:103AD0000E028281704721B1828A42F400628282A2
:103AE00004E0828A4FF2FF731A4082827047828A12
:103AF0004FF6FB731A408282828A0A4382827047A1
:103B000021B1828A42F00202828204E0828A4FF668
:103B1000FD731A408282704702460020B1F5007F93
:103B200000D100BF13880B4201D0012000E000202B
:103B3000704701F40072B2F5007F00D100BFCA43A4
:103B40000280704770B50246002400230025002043
:103B5000A1F510666A3E00D100BFC1F3421501F025
:103B60001F03012606FA03F3012D02D19689334083
:103B700006E0022D02D1168A334001E0968A3340D6
:103B80000C12012606FA04F41688344013B10CB165
:103B9000012000E0002070BD10B500220023A1F537
:103BA00010646A3C00D100BF0A1201249440A3B201
:103BB000DC43048010BD0000003801400044004098
:103BC00000480040004C0040005000400E49086092
:103BD00070470D49486070470B49886070474AF646
:103BE000AA200949086070474CF6CC400649086095
:103BF000704701460020044AD2680A4201D00120E1
:103C000000E0002070470000003000400CB50020AC
:103C1000019000906B48006840F48030694908606A
:103C200000BF6848006800F4003000900198401C14
:103C30000190009818B90198B0F5A06FF1D16148D2
:103C4000006810F4003F02D00120009001E0002045
:103C500000900098012842D15B48006840F01000B5
:103C6000594908600846006820F0030008600846CB
:103C7000006840F0020008605248406851494860BE
:103C80000846406848600846406840F480604860E4
:103C90000846406820F47C1048600846406840F4BC
:103CA000E81048600846006840F08070086000BF77
:103CB0004448006810F0007FFAD04248406820F085
:103CC0000300404948600846406840F002004860F0
:103CD00000BF3C48406800F00C000828F9D10CBD3A
:103CE00010B5FFF793FF10BD10B53648006840F0DF
:103CF00001003449086008464068344908403149A9
:103D0000486008460068324908402E490860084665
:103D1000006820F4802008600846406820F4FE0017
:103D200048604FF41F008860FFF7DAFF4FF0006033
:103D30002849086010BD10B5002100200022214B49
:103D40005B6803F00C0121B1042906D0082928D1B1
:103D500007E0214B214C236027E01F4B1F4C2360C1
:103D600023E0184B5B6803F47010164B5B6803F498
:103D70008032022303EB904022B9194B4343174C86
:103D800023600DE00F4B5B6813F4003F04D0144B2D
:103D90004343124C236003E00F4B43430F4C23601B
:103DA00003E00D4B0D4C236000BF00BF054B5B686B
:103DB000C3F303130B4CE15C084B1B68CB40074C6F
:103DC000236010BD00100240002002400000FFF8F8
:103DD000FFFFF6FE08ED00E000127A005801002017
:103DE00000093D005C010020094880470948004760
:103DF000FEE7FEE7FEE7FEE7FEE7FEE7FEE7FEE79B
:103E0000FEE7FEE704480549054A064B70470000F7
:103E1000E93C0008ED000008E0060020E00C00206E
:103E2000E0080020E0080020032A40F2308010F073
:103E3000030C00F0158011F8013BBCF1020F624445
:103E400098BF11F801CB00F8013B38BF11F8013BD6
:103E5000A2F1040298BF00F801CB38BF00F8013B83
:103E600011F0030300F02880083AC0F0088051F8F0
:103E7000043B083A51F804CBA0E80810F5E7121DFE
:103E80005CBF51F8043B40F8043BAFF30080D2071D
:103E900024BF11F8013B11F801CB48BF11F8012BE9
:103EA00024BF00F8013B00F801CB48BF00F8012B0C
:103EB000704770477047704710B5203AC0F00B80CC
:103EC000B1E81850203AA0E81850B1E81850A0E81E
:103ED0001850BFF4F5AF5FEA027C24BFB1E8185078
:103EE000A0E8185044BF18C918C0BDE810405FEAE8
:103EF000827C24BF51F8043B40F8043B08BF704764
:103F0000D20728BF31F8023B48BF11F8012B28BF68
:103F100020F8023B48BF00F8012B7047754600F0BF
:103F200029F8AE4605006946534620F0070085464D
:103F300018B020B5FFF766FFBDE820404FF000063F
:103F40004FF000074FF000084FF0000B21F0070181
:103F5000AC46ACE8C009ACE8C009ACE8C009ACE8C4
:103F6000C0098D4670470446AFF300802046FCF739
:103F700024F90000004870478006002001491820FD
:103F8000ABBEFEE726000200704700002E2E2E6119
:103F90006E6420612053797374656D20526573657A
:103FA000742077696C6C2062652067656E6572614C
:103FB00074656420746F2072652D6C6F6164207469
:103FC0006865206E6577206F7074696F6E20627906
:103FD0007465730D0A000000F83F0008000000201F
:103FE0006C01000028010008284000086C01002036
:103FF000740B000084010008011006FF646C444E3D
:10400000305114780208125072083908021B042D2E
:104010000102030404100906070809020406087BCC
:08402000A24A2F6918000000FC
:04000005080000ED02
:10500000086F00207D510008876D0008456C00087E
:10501000856D0008C55100087DD90008000000001A
:105020000000000000000000000000001B710008EC
:10503000E351000800000000156E00082973000805
:1050400097510008975100089751000897510008A0
:105050009751000897510008975100089751000890
:105060009751000897510008975100089751000880
:105070009751000897510008975100089751000870
:105080009751000897510008975100089751000860
:105090009751000897510008975100089751000850
:1050A0009751000897510008975100089751000840
:1050B0005D8D0008618D0008975100089751000828
:1050C0009751000897510008975100089751000820
:1050D00097510008A1D70008A5D70008A9D7000854
:1050E0009751000897510008975100089751000800
:1050F00097510008975100089751000897510008F0
:1051000097510008975100089751000897510008DF
:1051100061D700089DD700089751000897510008F3
:1051200097510008975100089751000897510008BF
:10513000DFF80CD000F034F80048004735EA0008EA
:10514000086F002080F30888704740EA01039B073E
:1051500003D009E008C9121F08C0042AFAD203E0EC
:1051600011F8013B00F8013B521EF9D27047421C76
:1051700010F8011B0029FBD1801A704706488047B0
:1051800006480047FEE7FEE7FEE7FEE7FEE7FEE72C
:10519000FEE7FEE7FEE7FEE72D7300083151000849
:1051A000064C074D06E0E06840F0010394E8070074
:1051B00098471034AC42F6D3FFF7BEFF3CED000831
:1051C0005CED0008FEE7000010F8012F03E000BFCF
:1051D00010F8013F5A40491E11F0FF01F8D1104666
:1051E00070477047F0B500210226194B10240D4678
:1051F00001EBC10000EB40001A5C22F0FC0280329F
:1052000022F00302921C1A5418444278C67022F00D
:105210000302921C22F03C078278203722F003021E
:10522000921C22F07C021832827027F0C002803279
:1052300042700471447100228718521CD2B2BD71B1
:10524000152AF9D3491CC9B20829D1D3F0BD0000F1
:10525000C70100202DE9F0412D4CFE2812D0421E3E
:10526000072A30D2002200EBC0052B199E188F5C54
:105270007678BE4203D1521CD2B2082AF6D3082A4D
:1052800026D029E0002000EBC003002223449D1813
:105290008E5C6D78B54203D1521CD2B2082AF6D387
:1052A000082A11D0401CC0B20828ECD3194A0020AB
:1052B00013180C5C5B78A34203D1401CC0B20828D1
:1052C000F6D3082802D0EE20BDE8F081FF20FBE7EE
:1052D000665D0EB1EF20F7E7002666550E4C082AF2
:1052E0002C4404F8096C0BD000229E188D5C75705C
:1052F0008D5CA618521CD2B206F8085C082AF4D3BA
:105300005B1C0822A62103F075FCED20DCE7000001
:10531000A30300208A0300200203002009F0D4BA6E
:105320000149C860704700000020024070B5054682
:105330004FF43026304600F087F8042813D10A4C89
:10534000206940F0020020616561206940F0400062
:105350002061304600F078F8052804D0216941F634
:10536000FD721140216170BD0020024008490420F7
:10537000CA68D20701D001207047CA68520701D518
:1053800002207047C968C906FBD50320704700009A
:10539000002002400248016941F08001016170472C
:1053A00000200240F0B506464FF400570D4638463F
:1053B00000F04AF804280ED1074C206940F00100A3
:1053C00020613580384600F03FF8052803D0216978
:1053D000BA1E11402161F0BD002002402DE9F841C4
:1053E000064600204FF4005700900D46384600F066
:1053F0002BF8042818D10D4C206940F001002061E1
:105400003580B846384600F01FF8BF1E042806D184
:10541000B61C280C00963080404600F015F8052890
:1054200002D0216939402161BDE8F88100200240A5
:1054300003480249416003494160704723016745C1
:1054400000200240AB89EFCD00B50346FFF78EFF89
:1054500003E000BFFFF78AFF5B1E012803D0002B8B
:1054600000D1052000BD002BF4D1FAE701490870F6
:105470007047000096000020F8B5114800F056F87B
:10548000104C207820F0400020700F4800260F4D6F
:1054900006800BE0287838B1C0B28DF8000068466D
:1054A00001F0D0F92E70F8BD01F050FC20784006D4
:1054B000F0D5FF208DF80000684601F0C3F9F8BD73
:1054C000E05D002093000020A20000209600002054
:1054D0002DE9F041DFF84C800E460746402140465A
:1054E00001F0AEFB0A2009F0D4F900240E4D0EE0C5
:1054F000395D284608F03EFA4021284608F09EF91A
:105500000028F9D0E00501D101F020FC641CB44270
:10551000EED3012009F0BDF94046BDE8F04140213D
:1055200001F08CBB00080140004400402DE9F04F21
:10553000ADF2244D0020C849CDF81804C5480860D4
:1055400000209826C54DDFF818B3C64C8246CDF82A
:10555000100418278046CDF80C0400BF4FF0000956
:105560006878800709D5687820F0020068704FF0ED
:10557000FF300DF2244DBDE8F08F2078012802D0D5
:105580002078032802D1B849A1F800804FF4801395
:105590000DF21C420DF21441684601F096F948B133
:1055A000012875D0DDF80C04002802DD20780228DF
:1055B0006FD0B4E0AD494FF0000AA1F8008029781F
:1055C00021F040012970ABF80080DDF81414B1F12E
:1055D000FF3F1ED079B39DF8012009F0FF00824201
:1055E00058D0207801284BD020780328B8D1152036
:1055F0008DF808040DF5816001F024F98DF8086438
:1056000001210DF58160FFF763FF00BF6FF001001E
:10561000AFE72078012806D02078032807D020782B
:10562000022809D090E006208DF8080494E00620B6
:105630008DF808049BE001E0062083E021782046F5
:1056400001291AD00178032903D0007802280CD050
:105650000EE004208DF8080401210DF58160FFF7AC
:1056600037FF0120CDF8100402E0062000F03AFFD9
:10567000DDF8100400283FF471AFDDF8180478E776
:1056800015208DF808040DF5816001F0DBF8BDE709
:105690000AE042E0491D6846FFF71AFF012009F1C0
:1056A0000109CDF80C045BE7287820F04000287051
:1056B0006E49ABF80080A1F800802078012806D060
:1056C000207803280ED0207802281DD022E08DF803
:1056D00008740DF5816001F0B5F80DF5816001F0F9
:1056E000B1F817E08DF808740DF5816001F0AAF8A3
:1056F0000DF5816001F0A6F88DF8086401210DF523
:105700008160FFF7E5FE05E0182000F0EBFE1820B1
:1057100000F0E8FE6FF002002BE70AF1010A28789A
:10572000800605D4BAF10A0F02DC687840072AD552
:10573000207801280AD02078032812D0182000F001
:10574000D1FE182000F0CEFE002012E78DF808747C
:105750000DF5816001F076F80DF5816001F072F8C9
:10576000F2E78DF808740DF5816001F06BF80DF526
:10577000816001F067F88DF8086401210DF5816002
:10578000FFF7A6FEE0E72078012809D0207803285B
:105790001AD02078022886D1432000F0A3FEDFE64D
:1057A00028784006FBD543208DF808040DF581606C
:1057B00001F048F8287820F0400028702C48ABF819
:1057C000008080F80080CBE62948007806280ED0BB
:1057D000A0F1F1020E2A1AD825496FF0030081F8D2
:1057E00000802449A1F80080ABF80080C1E60620C3
:1057F0008DF808040DF5816001F024F81C4981F84A
:1058000000801C49A1F80080ABF80080A8E62A7847
:10581000520601D5432808D00028C0D08DF80804CE
:105820000DF5816001F00EF89AE643208DF808042A
:105830000DF5816001F006F8287820F0400028700E
:105840000C49ABF80080A1F80080094981F800807C
:1058500086E6000000780208B800002093000020CF
:10586000A2000020920000203800002098000020B4
:10587000960000209A00002010B5064801F0FAF8C2
:105880000021042001F020FB0021012001F01CFB7D
:1058900072B610BD0008014001B50098410503D063
:1058A000012101EBD02008BDC00A08BD2DE9F0415F
:1058B000094E07464FF0FF3500243846FFF736FD06
:1058C0003070042806D0641C64B2032CF5DB284633
:1058D000BDE8F0810025FAE7A9000020FFF77EBDB2
:1058E00070B50446FFF7C8FF206808490840B0F1CA
:1058F000005F09D16068064D28602068FFF722FC30
:105900002868BDE87040004770BD00000000FE2F11
:10591000B0000020FFF719BC2DE9F04F87B0DFF889
:10592000D491754800F096F9DFF8D4817349754C2D
:10593000051EC8F800107CDD73480068A84278D3C3
:105940000026DFF8C8B1724F28E000BF01F0FEF971
:105950000BEB860A9AF80100022802D001280ED02B
:105960001FE001F0F3F94FF48061484600F08EFF2C
:10597000BAF80210814214D109F580600BE001F001
:10598000E5F98021484600F081FFBAF80210814213
:1059900007D109F18000761C8146F6B2387886423C
:1059A000D4D33878864266D35B485A4900260160D2
:1059B00080F81461C0F8045145462868FFF776FF67
:1059C000002843D1DFF850810027DFF850B1DFF81D
:1059D00050A115E027F00309384458F80910FFF7E3
:1059E0007DFF8BF80000042830D12868C25958F890
:1059F000090082422AD13F1DBFB2B7F58C7F02D287
:105A000028685045E6D3032E24DA46A000F068FD4E
:105A10004FA000F065FD53208DF8140005A800F09C
:105A200011FF01F093F9C82008F03FFF01F08EF953
:105A300000E029E04FF00060FFF752FF20780128D6
:105A40000FD02078022813D14EA00FE0761C76B23A
:105A5000032EB2DB2868FFF729FF2078012802D047
:105A60000CE0502035E0F02033E055A000F038FD88
:105A700007B0BDE8F08F2078012803D020780228F5
:105A8000F3D0F5E7F12024E0681C0FD0A81C17D054
:105A90002078ED1C23D001282AD020780228E7D1D5
:105AA00047A007B0BDE8F04F00F01ABD20780128EC
:105AB00004D020780228DBD149A0F2E7F22008E0E8
:105AC0002078012804D020780228D1D154A0E8E71A
:105AD000F3208DF80000684600F0B4FEC8E7012806
:105AE00004D020780228C3D154A0DAE7F420F0E7EC
:105AF000F520EEE700780208E05D002000F80308DA
:105B0000B4000020920000209C00002000630020D0
:105B1000A00000206E496C6FE8610020A900002001
:105B2000000004080D0A2A2A2A2A2A20446F776EC8
:105B30006C6F616420496D616765205375636365AF
:105B4000737366756C6C7921202A2A2A2A2A000030
:105B50000D0A2A2A2A2A2A2A2A2A2A2A2A204A7581
:105B60006D7020546F20426F6F746C6F616465724A
:105B70002E2E2E202A2A2A2A2A2A2A2A2A2A2A2A83
:105B80002A0000000D0A2A2A2A2A2A2A2A2A2A2A30
:105B90002A204A756D7020546F20426F6F746C6FAD
:105BA00061646572204661696C65642E2E2E202A20
:105BB0002A2A2A2A2A2A2A2A2A2A2A2A0D0A0000D6
:105BC0000A0D4661696C656420746F2072656365B7
:105BD000697665207468652066696C65210A0D0028
:105BE0000A0A0D54686520696D6167652073697ADA
:105BF0006520697320686967686572207468616EE2
:105C00002074686520616C6C6F77656420737061C7
:105C10006365206D656D6F7279210A0D00000000CB
:105C20000A0A0D566572696669636174696F6E2050
:105C30006661696C6564210A0D0000000D0A0A4165
:105C4000626F7274656420627920757365722E0AC2
:105C50000D0000002DE9F14F4FF0000ACCB0E448F0
:105C6000CDF818A1E14AC0F808A00260E14DE24C6D
:105C7000D34656464FF01808CDF820A14C984FF067
:105C800000094A906878800771D401F05FF82078A5
:105C9000012802D1D948A0F800A04FF4801343AAEC
:105CA00040A9D74800F011FE38B1012874D0002E69
:105CB00002DD2078022870D062E1D2484FF0000B5C
:105CC0005346A0F800A0287820F040002870CE4865
:105CD000A0F800A0409AB2F1FF3F0FD0DAB1C84956
:105CE00009F0FF004F784B90874229D02078012897
:105CF00022D020780228C5D1152062E12078012821
:105D000003D02078022804D049E106208DF808014C
:105D10004CE1062041E12078012803D020780228B8
:105D200003D005E00120489002E0062000F0DAFBF5
:105D300048980028A2D0A2E015208DF808016AE05A
:105D4000B9F1000F14D0C91C4A98FFF7E3FDA84F22
:105D50004C98B8604099469890FBF1F201FB120212
:105D6000891A0144A9480026C0F808119CE03FE0C8
:105D7000C878B0B30020C91CA44F03E03E18491CEA
:105D80003271401C0A780AB1FF28F7DD38446A46B0
:105D900003710020491C04E0CDE0EFE01654491CDB
:105DA000401C0E78202E01D01028F7DB135446A992
:105DB000104600F05FF94698C7F80401B0F5C03FFF
:105DC0001BDB2078012803D0207802280AD00FE0BE
:105DD0008DF8088142A800F035FD42A800F032FDA0
:105DE00006E03AE0182000F07DFB182000F07AFB76
:105DF0004FF0FF304DB0BDE8F08FFFF74DFD074687
:105E0000002619E07A48D0E9001000FB0610FFF7E1
:105E10004DFD80BB0FE042A800F014FD08E02078A3
:105E2000022805D1182000F05DFB182000F05AFB75
:105E30006FF00100DEE7761CBE4203D274480078A2
:105E40000428DFD02078012867D0207802286ED17E
:105E5000062000F047FB432067E02078012803D0AC
:105E60002078022808D00AE006208DF8080142A810
:105E700000F0E8FC03E034E0062000F033FB469835
:105E8000B8E7B9680968FFF729FD61490428087077
:105E900027D13968B8680A6803689A4221D1091D78
:105EA000001D3960361DB8604098864207DA5748B1
:105EB000D0F808114D48014438688142E1D855486E
:105EC00040990268B1F5806F0A4402605248A9F116
:105ED000010200EB890000F8042C0BD080290BD0C4
:105EE0000DE0207801289AD18DF8088142A800F0B1
:105EF000A9FC90E7022100E0012100F8031CBDF895
:105F00000C1120F8021C45494B9808702078012894
:105F100003D02078022807D009E006208DF8080178
:105F200042A800F08FFC02E0062000F0DBFA09F145
:105F300001090126A6E6287820F0400028703249A1
:105F4000A1F800A02F49A1F800A02078012803D0D3
:105F50002078022809D00EE08DF8088142A800F0D0
:105F600071FC42A800F06EFC05E0182000F0BAFABF
:105F7000182000F0B7FA6FF002003BE70BF1010BBD
:105F80002878800602D4BBF10A0F13DD207801289F
:105F900007D0182000F0A6FA182000F0A3FA00207D
:105FA00028E78DF8088142A800F04CFC42A800F0D8
:105FB00049FCF4E72078012806D020780228B9D1DE
:105FC000432000F08FFA5DE628784006B2D54320E2
:105FD0008DF8080142A800F035FC287820F0400038
:105FE00028700949A1F800A04CE6000000780208DA
:105FF000B80000209300002092000020380000200C
:10600000FC66002098000020A2000020E86100202B
:10601000A90000209C00002000630020A0000020B8
:106020002DE9F0410C460746114D4FF4967619E0E4
:106030002878012806D02878032803D02878022859
:1060400010D103E0384600F087F902E0384600F04E
:1060500035FA00280AD0B4FBF6F006FB104008B968
:1060600000F074FE641EE3D24FF0FF30BDE8F08113
:106070009200002070B5002204781346302C04D121
:106080004478782C0AD0582C08D06FF02F05845C07
:1060900074B36B2C2ED04B2C2CD030E082780AB30A
:1060A0000224025D5AB1A2F14105052D0AD9A2F1DF
:1060B0006106052E06D91135092D07D913E00120F7
:1060C0000B6011E0A2F13006092E01D8303A04E04D
:1060D000052D01D8373A00E0573A641C02EB031350
:1060E0000B2CDED302E000200B2C00D3002070BD6F
:1060F0000B6002E01AB1980207E0012015E06D2C58
:1061000001D04D2C03D112B118050860F5E7A4F1B8
:106110003006092E08D803EB830305EB4303521C1A
:1061200023440B2AB3D3E1E700200B2ADED270BD53
:1061300070B52C4A1078002852D02B48017841F6CF
:106140004C54CB064FF000010FD5284B1D886D1C19
:10615000ADB21D80A54208D3057825F01005057065
:10616000057845F020050570198003781B060CD5CD
:106170001F4B1D886D1CADB21D80B5F57A7F04D311
:10618000057845F0400505701980137893B1194BD7
:10619000194E1D686D1C1D60B5420BD3457845F046
:1061A00002054570457825F001054570134D1960CD
:1061B00001232B701278032A12D1427812070FD5CF
:1061C0000F4A13885B1C9BB21380A34208D3437809
:1061D00023F008034370437843F0040343701180B5
:1061E00070BD000092000020930000209800002065
:1061F000A2000020A4000020F0490200A800002016
:106200009A00002030B5044687B00121042000F038
:106210005BFE0121102000F057FE0121880300F0F1
:1062200053FE4FF40070ADF8100003208DF81200FB
:106230001820214D8DF8130004A9284600F074FCA5
:106240002815ADF8100004208DF8130004A9284685
:1062500000F06AFC194D284607F0B6FA0020ADF8A8
:106260000400ADF80600ADF80800ADF80C000C20F5
:10627000ADF80A0000946946284607F01DFB01218D
:10628000284607F096FA012240F22551284607F0E9
:10629000FBFA4021284607F089FA25208DF81400E2
:1062A00002208DF8160001208DF8170005A800F0D7
:1062B0006BFD07B030BD0000000801400038014010
:1062C00030B5044685B00121042000F0FDFD012118
:1062D000102000F0F9FD0121880300F0F5FD4FF4D6
:1062E0000070ADF8100003208DF812001820184D32
:1062F0008DF8130004A9284600F016FC2815ADF807
:10630000100004208DF8130004A9284600F00CFCAE
:10631000104D284607F058FA0020ADF80400ADF8FB
:106320000600ADF80800ADF80C000C20ADF80A002E
:1063300000946946284607F0BFFA0121284607F075
:1063400038FA4021284607F031FA05B030BD000088
:10635000000801400038014010B5044620210648DD
:1063600007F06CFA28B10448001D00882070002056
:1063700010BD012010BD00000038014030B50446BA
:1063800087B00121082000F09FFD0121880400F062
:1063900083FD4FF48060ADF8100018208DF81300D5
:1063A0000320214D8DF8120004A9284600F0BCFB03
:1063B000E814ADF8100004208DF8130004A9284655
:1063C00000F0B2FB194D284607F0FEF90020ADF8A9
:1063D0000400ADF80600ADF80800ADF80C000C2084
:1063E000ADF80A0000946946284607F065FA2720B0
:1063F0008DF8140005208DF8160001208DF8170087
:1064000005A800F0C1FC012240F22551284607F002
:106410003BFA0121284607F0CCF94021284607F035
:10642000C5F907B030BD0000000C01400048004035
:1064300070B5044686B00121082000F045FD012119
:10644000880400F029FD1B4D284607F0BDF92815EA
:10645000ADF8100018208DF813000320164E8DF8AB
:10646000120004A9304600F05FFBE814ADF81000FC
:1064700004208DF8130004A9304600F055FB0020DD
:10648000ADF80400ADF80600ADF80800ADF80C005A
:106490000C20ADF80A0000946946284607F00CFA73
:1064A0000121284607F085F94021284607F07EF9AA
:1064B00006B070BD00480040000C014010B5044615
:1064C0002021064807F0BAF928B10448001D0088C9
:1064D0002070002010BD012010BD000000480040C9
:1064E0007047000010B5064C0146204607F042FAFE
:1064F0008021204607F0A2F90028F9D0002010BD25
:10650000004800402DE9F05F764F387800287CD0B5
:106510007548DFF8D8910025754C0560C9F8005022
:10652000607820F002006070DFF8C8A1AAF800507F
:10653000207840F0400020706F4E3580207820F0A9
:10654000200020703978DFF8B4B14FF416500129DB
:1065500006D03978032929D03878022869D07EE01E
:106560008046FFF7ADFE66A0FFF7BAFF207840F047
:1065700010002070207840F080002070607840F09B
:106580000100607000F0E2FBFEF752FFFFF7C4F974
:10659000FEF700FF00F0DAFB4FF4167008F085F903
:1065A00000F0D4FB4046FFF72DFE58E04FF41650A4
:1065B000FFF786FE8BF8005051A0FFF791FF20787F
:1065C00040F010002070207840F08000207060784B
:1065D00040F00100607052480580607840F008008B
:1065E0006070607820F004006070207840F0100047
:1065F00020703580207820F020002070DFF8248182
:1066000088F8005000F0A2FB00E069E0FEF734FFDC
:1066100000F09CFB4FF4167008F047F900F096FB71
:106620004FF41650FFF7EEFD3F4888F80050057014
:1066300015E04FF4E1384046FFF7FAFE3BA0FFF7C4
:106640004FFFFEF7F5FE00F081FBFFF765F9FEF75F
:10665000A1FE3EA0FFF744FF4046FFF78FFE4148F2
:1066600005703D70207820F0100020703580207873
:1066700020F020002070207820F08000207020780A
:1066800020F040002070AAF80050607820F001004F
:106690006070607820F0020060702148C9F80050F6
:1066A0000580607820F008006070607820F00400B9
:1066B000607001218BF8001000F048FB4FF4FA7075
:1066C00008F0F3F800F042FB04F0A2FD00F03EFBFE
:1066D0004FF4967008F0E9F8BDE8F05F00F036BBC3
:1066E000BDE8F09F920000209C000020A400002044
:1066F00093000020A200002098000020A8000020A5
:106700000D0A506C656173652043686F696365208D
:106710005468652046696C65205448430D0A0000A2
:106720009A00002096000020AA0000200D0A506C5C
:10673000656173652043686F6963652054686520EF
:1067400046696C6520554152540D0A000D0A446F8C
:10675000776E6C6F61642046696C65204661696C78
:106760000D0A00009500002070B500F01FF80B48DE
:10677000002505700A4805700A4901200A4E087074
:106780002C4600BF06EB84004570200701D100F0C5
:10679000DDFA641CE4B2FF2CF4D370BD920000203B
:1067A00095000020A8000020006300202DE9F041A2
:1067B00000251A4E2C464FF480677455E80601D127
:1067C00000F0C4FA6D1CADB2BD42F6D314481549B1
:1067D0000470154840F8941C00F8904C1349046765
:1067E000C0E91D411249C1671249042008701248CE
:1067F00004801248017821F010010170017821F025
:10680000200101700E490C80017821F08001017097
:10681000017821F040010170BDE8F081E05D0020C9
:10682000AA000020646C444E7C62002000780208BC
:1068300000500008A90000209800002093000020CC
:10684000A20000200F4910B509780124012906D0C3
:10685000022909D032290ED00024204610BD03465B
:106860000122A721FF2003E003460122802100200E
:1068700002F0C0F9F1E703460348012280210078C5
:10688000F6E7000095000020AA00002070B503463E
:10689000002041F221044FF6FF7510E013F8012BA0
:1068A00080EA02200822060403D584EA400080B270
:1068B00001E005EA4000521E1204120CF3D10A0056
:1068C000A1F1010189B2E9D170BD2DE9F84F002491
:1068D0000E4605460C6091469A462746194668467C
:1068E000FFF79EFB4FF0FF3800286BD19DF80000AA
:1068F000182818D006DC01280AD002280CD0042859
:1069000004D10EE0412824D0612822D0474617E068
:106910008024287001271FE04FF48064287001272D
:1069200021E004240CE051466846FFF779FB18B9D2
:106930009DF80000182808D09DF80000182447464C
:106940002870012640F2054929E03024C6F800806D
:10695000F6E741240127F3E7E8195146FFF760FB0A
:1069600080BB7F1CBFB2601D8742F5D3A9786878D1
:1069700081F0FF01884225D12146E81CFFF786FF00
:106980002919B1F8031049BA814203D06FF005000C
:10699000BDE8F88FA9F8000000203460F8E7A819D6
:1069A0005146FFF73DFB18B9761CB6B24E45F6D3FB
:1069B000012E07D1042C07D0302C05D0182C03D081
:1069C000412C01D04046E3E73846E1E710B5DC074B
:1069D00001D0E32010BD04F0F5FC012010BD000043
:1069E0002DE9F04100F0B2F90124FEF721FD352038
:1069F000FEF796FC184D194E00F0A8F92846FEF750
:106A000095FC042823D00024FEF7C4FC14484078E9
:106A1000C0F3C00005F08EFAB4B10022FF20114F80
:106A2000551E02EB8203002107EBC30303EBC106F3
:106A300003F83100491C7070C9B275600529F5D39F
:106A4000521CD2B2642AECD32046BDE8F08105F591
:106A50000065B542D0D9D7E700D80108FF77020812
:106A600028000020C0440020D30701D0E320704755
:106A700004F0D6BC254910B5884206D10121042076
:106A800000F02EFA002104203BE02149884206D183
:106A90000121082000F024FA0021082031E01D49DE
:106AA000884206D10121102000F01AFA002110209E
