:020000040800F2
:10500000686F00207D510008876D0008456C00081E
:10501000856D0008C551000889D90008000000000E
:105020000000000000000000000000002B710008DC
:10503000E351000800000000156E000839730008F5
:1050400097510008975100089751000897510008A0
:105050009751000897510008975100089751000890
:105060009751000897510008975100089751000880
:105070009751000897510008975100089751000870
:105080009751000897510008975100089751000860
:105090009751000897510008975100089751000850
:1050A0009751000897510008975100089751000840
:1050B000698D00086D8D0008975100089751000810
:1050C0009751000897510008975100089751000820
:1050D00097510008ADD70008B1D70008B5D7000830
:1050E0009751000897510008975100089751000800
:1050F00097510008975100089751000897510008F0
:1051000097510008975100089751000897510008DF
:105110006DD70008A9D700089751000897510008DB
:1051200097510008975100089751000897510008BF
:10513000DFF80CD000F034F800480047CDEA000852
:10514000686F002080F30888704740EA01039B07DE
:1051500003D009E008C9121F08C0042AFAD203E0EC
:1051600011F8013B00F8013B521EF9D27047421C76
:1051700010F8011B0029FBD1801A704706488047B0
:1051800006480047FEE7FEE7FEE7FEE7FEE7FEE72C
:10519000FEE7FEE7FEE7FEE73D7300083151000839
:1051A000064C074D06E0E06840F0010394E8070074
:1051B00098471034AC42F6D3FFF7BEFFD4ED000899
:1051C000F4ED0008FEE7000010F8012F03E000BF37
:1051D00010F8013F5A40491E11F0FF01F8D1104666
:1051E00070477047F0B500210226194B10240D4678
:1051F00001EBC10000EB40001A5C22F0FC0280329F
:1052000022F00302921C1A5418444278C67022F00D
:105210000302921C22F03C078278203722F003021E
:10522000921C22F07C021832827027F0C002803279
:1052300042700471447100228718521CD2B2BD71B1
:10524000152AF9D3491CC9B20829D1D3F0BD0000F1
:10525000C70100202DE9F0412D4CFE2812D0421E3E
:10526000072A30D2002200EBC0052B199E188F5C54
:105270007678BE4203D1521CD2B2082AF6D3082A4D
:1052800026D029E0002000EBC003002223449D1813
:105290008E5C6D78B54203D1521CD2B2082AF6D387
:1052A000082A11D0401CC0B20828ECD3194A0020AB
:1052B00013180C5C5B78A34203D1401CC0B20828D1
:1052C000F6D3082802D0EE20BDE8F081FF20FBE7EE
:1052D000665D0EB1EF20F7E7002666550E4C082AF2
:1052E0002C4404F8096C0BD000229E188D5C75705C
:1052F0008D5CA618521CD2B206F8085C082AF4D3BA
:105300005B1C0822A62103F07BFCED20DCE70000FB
:1053100003040020EA0300206203002009F020BB00
:105320000149C860704700000020024070B5054682
:105330004FF43026304600F087F8042813D10A4C89
:10534000206940F0020020616561206940F0400062
:105350002061304600F078F8052804D0216941F634
:10536000FD721140216170BD0020024008490420F7
:10537000CA68D20701D001207047CA68520701D518
:1053800002207047C968C906FBD50320704700009A
:10539000002002400248016941F08001016170472C
:1053A00000200240F0B506464FF400570D4638463F
:1053B00000F04AF804280ED1074C206940F00100A3
:1053C00020613580384600F03FF8052803D0216978
:1053D000BA1E11402161F0BD002002402DE9F841C4
:1053E000064600204FF4005700900D46384600F066
:1053F0002BF8042818D10D4C206940F001002061E1
:105400003580B846384600F01FF8BF1E042806D184
:10541000B61C280C00963080404600F015F8052890
:1054200002D0216939402161BDE8F88100200240A5
:1054300003480249416003494160704723016745C1
:1054400000200240AB89EFCD00B50346FFF78EFF89
:1054500003E000BFFFF78AFF5B1E012803D0002B8B
:1054600000D1052000BD002BF4D1FAE701490870F6
:105470007047000096000020F8B5114800F056F87B
:10548000104C207820F0400020700F4800260F4D6F
:1054900006800BE0287838B1C0B28DF8000068466D
:1054A00001F0D0F92E70F8BD01F050FC20784006D4
:1054B000F0D5FF208DF80000684601F0C3F9F8BD73
:1054C000405E002093000020A200002096000020F3
:1054D0002DE9F041DFF84C800E460746402140465A
:1054E00001F0AEFB0A2009F020FA00240E4D0EE078
:1054F000395D284608F044FA4021284608F0A4F90E
:105500000028F9D0E00501D101F020FC641CB44270
:10551000EED3012009F009FA4046BDE8F0414021F0
:1055200001F08CBB00080140004400402DE9F04F21
:10553000ADF2244D0020C849CDF81804C5480860D4
:1055400000209826C54DDFF818B3C64C8246CDF82A
:10555000100418278046CDF80C0400BF4FF0000956
:105560006878800709D5687820F0020068704FF0ED
:10557000FF300DF2244DBDE8F08F2078012802D0D5
:105580002078032802D1B849A1F800804FF4801395
:105590000DF21C420DF21441684601F096F948B133
:1055A000012875D0DDF80C04002802DD20780228DF
:1055B0006FD0B4E0AD494FF0000AA1F8008029781F
:1055C00021F040012970ABF80080DDF81414B1F12E
:1055D000FF3F1ED079B39DF8012009F0FF00824201
:1055E00058D0207801284BD020780328B8D1152036
:1055F0008DF808040DF5816001F024F98DF8086438
:1056000001210DF58160FFF763FF00BF6FF001001E
:10561000AFE72078012806D02078032807D020782B
:10562000022809D090E006208DF8080494E00620B6
:105630008DF808049BE001E0062083E021782046F5
:1056400001291AD00178032903D0007802280CD050
:105650000EE004208DF8080401210DF58160FFF7AC
:1056600037FF0120CDF8100402E0062000F03AFFD9
:10567000DDF8100400283FF471AFDDF8180478E776
:1056800015208DF808040DF5816001F0DBF8BDE709
:105690000AE042E0491D6846FFF71AFF012009F1C0
:1056A0000109CDF80C045BE7287820F04000287051
:1056B0006E49ABF80080A1F800802078012806D060
:1056C000207803280ED0207802281DD022E08DF803
:1056D00008740DF5816001F0B5F80DF5816001F0F9
:1056E000B1F817E08DF808740DF5816001F0AAF8A3
:1056F0000DF5816001F0A6F88DF8086401210DF523
:105700008160FFF7E5FE05E0182000F0EBFE1820B1
:1057100000F0E8FE6FF002002BE70AF1010A28789A
:10572000800605D4BAF10A0F02DC687840072AD552
:10573000207801280AD02078032812D0182000F001
:10574000D1FE182000F0CEFE002012E78DF808747C
:105750000DF5816001F076F80DF5816001F072F8C9
:10576000F2E78DF808740DF5816001F06BF80DF526
:10577000816001F067F88DF8086401210DF5816002
:10578000FFF7A6FEE0E72078012809D0207803285B
:105790001AD02078022886D1432000F0A3FEDFE64D
:1057A00028784006FBD543208DF808040DF581606C
:1057B00001F048F8287820F0400028702C48ABF819
:1057C000008080F80080CBE62948007806280ED0BB
:1057D000A0F1F1020E2A1AD825496FF0030081F8D2
:1057E00000802449A1F80080ABF80080C1E60620C3
:1057F0008DF808040DF5816001F024F81C4981F84A
:1058000000801C49A1F80080ABF80080A8E62A7847
:10581000520601D5432808D00028C0D08DF80804CE
:105820000DF5816001F00EF89AE643208DF808042A
:105830000DF5816001F006F8287820F0400028700E
:105840000C49ABF80080A1F80080094981F800807C
:1058500086E6000000780208B800002093000020CF
:10586000A2000020920000203800002098000020B4
:10587000960000209A00002010B5064801F0FAF8C2
:105880000021042001F028FB0021012001F024FB6D
:1058900072B610BD0008014001B50098410503D063
:1058A000012101EBD02008BDC00A08BD2DE9F0415F
:1058B000094E07464FF0FF3500243846FFF736FD06
:1058C0003070042806D0641C64B2032CF5DB284633
:1058D000BDE8F0810025FAE7A9000020FFF77EBDB2
:1058E00070B50446FFF7C8FF206808490840B0F1CA
:1058F000005F09D16068064D28602068FFF722FC30
:105900002868BDE87040004770BD00000000FE2F11
:10591000B0000020FFF719BC2DE9F04F87B0DFF889
:10592000D491754800F096F9DFF8D4817349754C2D
:10593000051EC8F800107CDD73480068A84278D3C3
:105940000026DFF8C8B1724F28E000BF01F0FEF971
:105950000BEB860A9AF80100022802D001280ED02B
:105960001FE001F0F3F94FF48061484600F08EFF2C
:10597000BAF80210814214D109F580600BE001F001
:10598000E5F98021484600F081FFBAF80210814213
:1059900007D109F18000761C8146F6B2387886423C
:1059A000D4D33878864266D35B485A4900260160D2
:1059B00080F81461C0F8045145462868FFF776FF67
:1059C000002843D1DFF850810027DFF850B1DFF81D
:1059D00050A115E027F00309384458F80910FFF7E3
:1059E0007DFF8BF80000042830D12868C25958F890
:1059F000090082422AD13F1DBFB2B7F58C7F02D287
:105A000028685045E6D3032E24DA46A000F068FD4E
:105A10004FA000F065FD53208DF8140005A800F09C
:105A200011FF01F093F9C82008F08BFF01F08EF907
:105A300000E029E04FF00060FFF752FF20780128D6
:105A40000FD02078022813D14EA00FE0761C76B23A
:105A5000032EB2DB2868FFF729FF2078012802D047
:105A60000CE0502035E0F02033E055A000F038FD88
:105A700007B0BDE8F08F2078012803D020780228F5
:105A8000F3D0F5E7F12024E0681C0FD0A81C17D054
:105A90002078ED1C23D001282AD020780228E7D1D5
:105AA00047A007B0BDE8F04F00F01ABD20780128EC
:105AB00004D020780228DBD149A0F2E7F22008E0E8
:105AC0002078012804D020780228D1D154A0E8E71A
:105AD000F3208DF80000684600F0B4FEC8E7012806
:105AE00004D020780228C3D154A0DAE7F420F0E7EC
:105AF000F520EEE700780208405E002000F8030879
:105B0000B4000020920000209C0000206063002070
:105B1000A00000206E496C6F48620020A9000020A0
:105B2000000004080D0A2A2A2A2A2A20446F776EC8
:105B30006C6F616420496D616765205375636365AF
:105B4000737366756C6C7921202A2A2A2A2A000030
:105B50000D0A2A2A2A2A2A2A2A2A2A2A2A204A7581
:105B60006D7020546F20426F6F746C6F616465724A
:105B70002E2E2E202A2A2A2A2A2A2A2A2A2A2A2A83
:105B80002A0000000D0A2A2A2A2A2A2A2A2A2A2A30
:105B90002A204A756D7020546F20426F6F746C6FAD
:105BA00061646572204661696C65642E2E2E202A20
:105BB0002A2A2A2A2A2A2A2A2A2A2A2A0D0A0000D6
:105BC0000A0D4661696C656420746F2072656365B7
:105BD000697665207468652066696C65210A0D0028
:105BE0000A0A0D54686520696D6167652073697ADA
:105BF0006520697320686967686572207468616EE2
:105C00002074686520616C6C6F77656420737061C7
:105C10006365206D656D6F7279210A0D00000000CB
:105C20000A0A0D566572696669636174696F6E2050
:105C30006661696C6564210A0D0000000D0A0A4165
:105C4000626F7274656420627920757365722E0AC2
:105C50000D0000002DE9F14F4FF0000ACCB0E448F0
:105C6000CDF818A1E14AC0F808A00260E14DE24C6D
:105C7000D34656464FF01808CDF820A14C984FF067
:105C800000094A906878800771D401F05FF82078A5
:105C9000012802D1D948A0F800A04FF4801343AAEC
:105CA00040A9D74800F011FE38B1012874D0002E69
:105CB00002DD2078022870D062E1D2484FF0000B5C
:105CC0005346A0F800A0287820F040002870CE4865
:105CD000A0F800A0409AB2F1FF3F0FD0DAB1C84956
:105CE00009F0FF004F784B90874229D02078012897
:105CF00022D020780228C5D1152062E12078012821
:105D000003D02078022804D049E106208DF808014C
:105D10004CE1062041E12078012803D020780228B8
:105D200003D005E00120489002E0062000F0DAFBF5
:105D300048980028A2D0A2E015208DF808016AE05A
:105D4000B9F1000F14D0C91C4A98FFF7E3FDA84F22
:105D50004C98B8604099469890FBF1F201FB120212
:105D6000891A0144A9480026C0F808119CE03FE0C8
:105D7000C878B0B30020C91CA44F03E03E18491CEA
:105D80003271401C0A780AB1FF28F7DD38446A46B0
:105D900003710020491C04E0CDE0EFE01654491CDB
:105DA000401C0E78202E01D01028F7DB135446A992
:105DB000104600F05FF94698C7F80401B0F5C03FFF
:105DC0001BDB2078012803D0207802280AD00FE0BE
:105DD0008DF8088142A800F035FD42A800F032FDA0
:105DE00006E03AE0182000F07DFB182000F07AFB76
:105DF0004FF0FF304DB0BDE8F08FFFF74DFD074687
:105E0000002619E07A48D0E9001000FB0610FFF7E1
:105E10004DFD80BB0FE042A800F014FD08E02078A3
:105E2000022805D1182000F05DFB182000F05AFB75
:105E30006FF00100DEE7761CBE4203D274480078A2
:105E40000428DFD02078012867D0207802286ED17E
:105E5000062000F047FB432067E02078012803D0AC
:105E60002078022808D00AE006208DF8080142A810
:105E700000F0E8FC03E034E0062000F033FB469835
:105E8000B8E7B9680968FFF729FD61490428087077
:105E900027D13968B8680A6803689A4221D1091D78
:105EA000001D3960361DB8604098864207DA5748B1
:105EB000D0F808114D48014438688142E1D855486E
:105EC00040990268B1F5806F0A4402605248A9F116
:105ED000010200EB890000F8042C0BD080290BD0C4
:105EE0000DE0207801289AD18DF8088142A800F0B1
:105EF000A9FC90E7022100E0012100F8031CBDF895
:105F00000C1120F8021C45494B9808702078012894
:105F100003D02078022807D009E006208DF8080178
:105F200042A800F08FFC02E0062000F0DBFA09F145
:105F300001090126A6E6287820F0400028703249A1
:105F4000A1F800A02F49A1F800A02078012803D0D3
:105F50002078022809D00EE08DF8088142A800F0D0
:105F600071FC42A800F06EFC05E0182000F0BAFABF
:105F7000182000F0B7FA6FF002003BE70BF1010BBD
:105F80002878800602D4BBF10A0F13DD207801289F
:105F900007D0182000F0A6FA182000F0A3FA00207D
:105FA00028E78DF8088142A800F04CFC42A800F0D8
:105FB00049FCF4E72078012806D020780228B9D1DE
:105FC000432000F08FFA5DE628784006B2D54320E2
:105FD0008DF8080142A800F035FC287820F0400038
:105FE00028700949A1F800A04CE6000000780208DA
:105FF000B80000209300002092000020380000200C
:106000005C67002098000020A20000204862002069
:10601000A90000209C00002060630020A000002058
:106020002DE9F0410C460746114D4FF4967619E0E4
:106030002878012806D02878032803D02878022859
:1060400010D103E0384600F087F902E0384600F04E
:1060500035FA00280AD0B4FBF6F006FB104008B968
:1060600000F074FE641EE3D24FF0FF30BDE8F08113
:106070009200002070B5002204781346302C04D121
:106080004478782C0AD0582C08D06FF02F05845C07
:1060900074B36B2C2ED04B2C2CD030E082780AB30A
:1060A0000224025D5AB1A2F14105052D0AD9A2F1DF
:1060B0006106052E06D91135092D07D913E00120F7
:1060C0000B6011E0A2F13006092E01D8303A04E04D
:1060D000052D01D8373A00E0573A641C02EB031350
:1060E0000B2CDED302E000200B2C00D3002070BD6F
:1060F0000B6002E01AB1980207E0012015E06D2C58
:1061000001D04D2C03D112B118050860F5E7A4F1B8
:106110003006092E08D803EB830305EB4303521C1A
:1061200023440B2AB3D3E1E700200B2ADED270BD53
:1061300070B52C4A1078002852D02B48017841F6CF
:106140004C54CB064FF000010FD5284B1D886D1C19
:10615000ADB21D80A54208D3057825F01005057065
:10616000057845F020050570198003781B060CD5CD
:106170001F4B1D886D1CADB21D80B5F57A7F04D311
:10618000057845F0400505701980137893B1194BD7
:10619000194E1D686D1C1D60B5420BD3457845F046
:1061A00002054570457825F001054570134D1960CD
:1061B00001232B701278032A12D1427812070FD5CF
:1061C0000F4A13885B1C9BB21380A34208D3437809
:1061D00023F008034370437843F0040343701180B5
:1061E00070BD000092000020930000209800002065
:1061F000A2000020A4000020F0490200A800002016
:106200009A00002030B5044687B00121042000F038
:1062100063FE0121102000F05FFE0121880300F0E1
:106220005BFE4FF40070ADF8100003208DF81200F3
:106230001820214D8DF8130004A9284600F074FCA5
:106240002815ADF8100004208DF8130004A9284685
:1062500000F06AFC194D284607F0BCFA0020ADF8A2
:106260000400ADF80600ADF80800ADF80C000C20F5
:10627000ADF80A0000946946284607F023FB012187
:10628000284607F09CFA012240F22551284607F0E3
:1062900001FB4021284607F08FFA25208DF81400D5
:1062A00002208DF8160001208DF8170005A800F0D7
:1062B0006BFD07B030BD0000000801400038014010
:1062C00030B5044685B00121042000F005FE01210F
:1062D000102000F001FE0121880300F0FDFD4FF4C5
:1062E0000070ADF8100003208DF812001820184D32
:1062F0008DF8130004A9284600F016FC2815ADF807
:10630000100004208DF8130004A9284600F00CFCAE
:10631000104D284607F05EFA0020ADF80400ADF8F5
:106320000600ADF80800ADF80C000C20ADF80A002E
:1063300000946946284607F0C5FA0121284607F06F
:106340003EFA4021284607F037FA05B030BD00007C
:10635000000801400038014010B5044620210648DD
:1063600007F072FA28B10448001D00882070002050
:1063700010BD012010BD00000038014030B50446BA
:1063800087B00121082000F0A7FD0121880400F05A
:106390008BFD4FF48060ADF8100018208DF81300CD
:1063A0000320214D8DF8120004A9284600F0BCFB03
:1063B000E814ADF8100004208DF8130004A9284655
:1063C00000F0B2FB194D284607F004FA0020ADF8A2
:1063D0000400ADF80600ADF80800ADF80C000C2084
:1063E000ADF80A0000946946284607F06BFA2720AA
:1063F0008DF8140005208DF8160001208DF8170087
:1064000005A800F0C1FC012240F22551284607F002
:1064100041FA0121284607F0D2F94021284607F029
:10642000CBF907B030BD0000000C0140004800402F
:1064300070B5044686B00121082000F04DFD012111
:10644000880400F031FD1B4D284607F0C3F92815DC
:10645000ADF8100018208DF813000320164E8DF8AB
:10646000120004A9304600F05FFBE814ADF81000FC
:1064700004208DF8130004A9304600F055FB0020DD
:10648000ADF80400ADF80600ADF80800ADF80C005A
:106490000C20ADF80A0000946946284607F012FA6D
:1064A0000121284607F08BF94021284607F084F99E
:1064B00006B070BD00480040000C014010B5044615
:1064C0002021064807F0C0F928B10448001D0088C3
:1064D0002070002010BD012010BD000000480040C9
:1064E0007047000010B5064C0146204607F048FAF8
:1064F0008021204607F0A8F90028F9D0002010BD1F
:10650000004800402DE9F05F764F387800287CD0B5
:106510007548DFF8D8910025754C0560C9F8005022
:10652000607820F002006070DFF8C8A1AAF800507F
:10653000207840F0400020706F4E3580207820F0A9
:10654000200020703978DFF8B4B14FF416500129DB
:1065500006D03978032929D03878022869D07EE01E
:106560008046FFF7ADFE66A0FFF7BAFF207840F047
:1065700010002070207840F080002070607840F09B
:106580000100607000F0E2FBFEF752FFFFF7C4F974
:10659000FEF700FF00F0DAFB4FF4167008F0D1F9B7
:1065A00000F0D4FB4046FFF72DFE58E04FF41650A4
:1065B000FFF786FE8BF8005051A0FFF791FF20787F
:1065C00040F010002070207840F08000207060784B
:1065D00040F00100607052480580607840F008008B
:1065E0006070607820F004006070207840F0100047
:1065F00020703580207820F020002070DFF8248182
:1066000088F8005000F0A2FB00E069E0FEF734FFDC
:1066100000F09CFB4FF4167008F093F900F096FB25
:106620004FF41650FFF7EEFD3F4888F80050057014
:1066300015E04FF4E1384046FFF7FAFE3BA0FFF7C4
:106640004FFFFEF7F5FE00F081FBFFF765F9FEF75F
:10665000A1FE3EA0FFF744FF4046FFF78FFE4148F2
:1066600005703D70207820F0100020703580207873
:1066700020F020002070207820F08000207020780A
:1066800020F040002070AAF80050607820F001004F
:106690006070607820F0020060702148C9F80050F6
:1066A0000580607820F008006070607820F00400B9
:1066B000607001218BF8001000F048FB4FF4FA7075
:1066C00008F03FF900F042FB04F0A8FD00F03EFBAB
:1066D0004FF4967008F035F9BDE8F05F00F036BB76
:1066E000BDE8F09F920000209C000020A400002044
:1066F00093000020A200002098000020A8000020A5
:106700000D0A506C656173652043686F696365208D
:106710005468652046696C65205448430D0A0000A2
:106720009A00002096000020AA0000200D0A506C5C
:10673000656173652043686F6963652054686520EF
:1067400046696C6520554152540D0A000D0A446F8C
:10675000776E6C6F61642046696C65204661696C78
:106760000D0A00009500002070B500F01FF80B48DE
:10677000002505700A4805700A4901200A4E087074
:106780002C4600BF06EB84004570200701D100F0C5
:10679000DDFA641CE4B2FF2CF4D370BD920000203B
:1067A00095000020A8000020606300202DE9F04142
:1067B00000251A4E2C464FF480677455E80601D127
:1067C00000F0C4FA6D1CADB2BD42F6D314481549B1
:1067D0000470154840F8941C00F8904C1349046765
:1067E000C0E91D411249C1671249042008701248CE
:1067F00004801248017821F010010170017821F025
:10680000200101700E490C80017821F08001017097
:10681000017821F040010170BDE8F081405E002068
:10682000AA000020646C444EDC620020007802085C
:1068300000500008A90000209800002093000020CC
:10684000A20000200F4910B509780124012906D0C3
:10685000022909D032290ED00024204610BD03465B
:106860000122A721FF2003E003460122802100200E
:1068700002F0C6F9F1E703460348012280210078BF
:10688000F6E7000095000020AA00002070B503463E
:10689000002041F221044FF6FF7510E013F8012BA0
:1068A00080EA02200822060403D584EA400080B270
:1068B00001E005EA4000521E1204120CF3D10A0056
:1068C000A1F1010189B2E9D170BD2DE9F84F002491
:1068D0000E4605460C6091469A462746194668467C
:1068E000FFF79EFB4FF0FF3800286BD19DF80000AA
:1068F000182818D006DC01280AD002280CD0042859
:1069000004D10EE0412824D0612822D0474617E068
:106910008024287001271FE04FF48064287001272D
:1069200021E004240CE051466846FFF779FB18B9D2
:106930009DF80000182808D09DF80000182447464C
:106940002870012640F2054929E03024C6F800806D
:10695000F6E741240127F3E7E8195146FFF760FB0A
:1069600080BB7F1CBFB2601D8742F5D3A9786878D1
:1069700081F0FF01884225D12146E81CFFF786FF00
:106980002919B1F8031049BA814203D06FF005000C
:10699000BDE8F88FA9F8000000203460F8E7A819D6
:1069A0005146FFF73DFB18B9761CB6B24E45F6D3FB
:1069B000012E07D1042C07D0302C05D0182C03D081
:1069C000412C01D04046E3E73846E1E710B5DC074B
:1069D00001D0E32010BD04F0FBFC012010BD00003D
:1069E0002DE9F04100F0B2F90124FEF721FD352038
:1069F000FEF796FC184D194E00F0A8F92846FEF750
:106A000095FC042823D00024FEF7C4FC14484078E9
:106A1000C0F3C00005F094FAB4B10022FF20114F7A
:106A2000551E02EB8203002107EBC30303EBC106F3
:106A300003F83100491C7070C9B275600529F5D39F
:106A4000521CD2B2642AECD32046BDE8F08105F591
:106A50000065B542D0D9D7E700D80108FF77020812
:106A60002800002020450020D30701D0E3207047F4
:106A700004F0DCBC254910B5884206D10121042070
:106A800000F036FA002104203BE02149884206D17B
:106A90000121082000F02CFA0021082031E01D49D6
:106AA000884206D10121102000F022FA0021102096
:106AB00027E01949884206D10121202000F018FA68
:106AC000002120201DE01549884206D101214020E7
:106AD00000F00EFA0021402013E01149884206D14F
:106AE0000121802000F004FA0021802009E00D49F6
:106AF00088420AD184150121204600F0F9F90021CD
:106B00002046BDE8104000F0F3B910BD0008014078
:106B1000000C014000100140001401400018014029
:106B2000001C014000200140F0B5CA78002502F0A9
:106B30000F03D20601D58A7813430C784FF00F0E5D
:106B40000122ECB1D0F800400F8802FA05F6374078
:106B5000B74211D14FEA850C0EFA0CF724EA070769
:106B600003FA0CF43C43CF78282F02D0482F02D0F0
:106B700002E0466100E006616D1C082DE4D304606C
:106B80000C88FF2C1ED944685FF0000606F1080748
:106B900002FA07F50F882F40AF420FD14FEA860C5B
:106BA0000EFA0CF7BC4303FA0CF73C43CF78282FBE
:106BB00000D14561CF78482F00D10561761C082EA1
:106BC000E4D34460F0BD0000F0B5144C002801DAB5
:106BD000E36900E06368420D120185B2C0F301571A
:106BE0009540C0F30346032F05D0C2020AD5032205
:106BF000B240934307E023F07062636823F0706350
:106C0000636002E0AB4343F0706201B12A430028A5
:106C100001DAE261F0BD6260F0BD000000000140F9
:106C20000246002092680A4200D0012070470246C6
:106C30000020D2680A4200D00120704741617047AD
:106C400001617047FEE7704702F08CBA70470000A0
:106C50003EB50121022000F027F93520ADF80400EF
:106C60000920ADF800000024114DADF80640ADF844
:106C700002406946284602F057F9002201212846C1
:106C800002F04AF90B491D200870012048700220CB
:106C90008870CC70084600F077F80021284602F092
:106CA0006DF80548817821F0080181703EBD000033
:106CB00000040040200000202800002010B5012121
:106CC000022000F0F1F811483521114C8180092192
:106CD00001800021C18041800146204602F024F954
:106CE00001221146204602F017F90A491D2001220F
:106CF00008704A7002208870CA70084600F044F894
:106D00002046BDE81040012102F038B810030020F1
:106D1000000400402000002010B545F2555000F05E
:106D200029F8062000F01AF89C2000F01DF800F069
:106D30000DF8BDE8104000F001B8000002494CF623
:106D4000CC400860704700000030004002494AF61D
:106D5000AA200860704700000030004001494860E8
:106D60007047000000300040014988607047000013
:106D700000300040014908607047000000300040CA
:106D800007F004BEFEE77047F0B50F21C478027823
:106D900001234FF0E026DCB1124C2468457804F45E
:106DA000E064C4F5E064240AC4F10407E140847897
:106DB000BD400C402C4321010B4C1155007800F0D4
:106DC0001F018B40400906EB8000C0F80031F0BD88
:106DD00002F01F008340500906EB8000C0F88031AC
:106DE000F0BD00000CED00E000E400E002490843C3
:106DF00002490860704700000000FA050CED00E051
:106E0000024A1140014302480160704780FFFF1FA2
:106E100008ED00E0704790F8013190F800212BB1A7
:106E200090F8FF30934201D100207047815490F8D0
:106E30000011FF22491CB1FBF2F302FB131180F891
:106E4000001190F80111491C80F8011101207047D0
:106E500090F80121A2B190F8FF20825C0A7090F8AE
:106E6000FF10FF22491CB1FBF2F302FB131180F863
:106E7000FF1090F80111491E80F8011101207047A0
:106E800000207047002180F8FF1080F8001180F882
:106E90000111012180F8021170473C98C0F30720CE
:106EA000002800D001207047044A0029D16901D090
:106EB000014300E08143D1617047000000100240AF
:106EC000044A0029116901D0014300E081431161A6
:106ED0007047000000100240044A0029916901D067
:106EE000014300E0814391617047000000100240BF
:106EF000044A0029D16801D0014300E08143D160F8
:106F000070470000001002400C48016841F0010188
:106F1000016041680A4A114041600168094A114014
:106F20000160016821F480210160416821F4FE01C3
:106F300041604FF41F018160704700000010024063
:106F40000000FFF8FFFFF6FE30B520494A6812F056
:106F50000C031F4A03D0042B01D0082B22D002605F
:106F60004A680F231B4C03EA1212A35C0268DA4042
:106F700042604B68072505EA1323E35C22FA03F31A
:106F800083604B6805EAD323E35C22FA03F2C26014
:106F90004968032303EA9131231F595CB2FBF1F1E5
:106FA000016130BD4A684B6802F470124FF0020470
:106FB00013F4803F04EB924202D04B689B0301D54F
:106FC000054B00E0024B5A43C9E7000000100240A5
:106FD00000127A007900002000093D0002460020DE
:106FE00053090949012B0BD0022B0BD0D1F82410E7
:106FF00002F01F02012393400B4200D00120704792
:107000000968F5E7096AF3E700100240034A51688E
:1070100021F0F00101435160704700000010024070
:107020000B490A6822F480320A600A6822F480223E
:107030000A60B0F5803F07D0B0F5802F03D1086813
:1070400040F4A02008607047086840F48030F9E7F9
:1070500000100240034A516821F4E061014351608D
:10706000704700000010024003494A6822F4605251
:1070700042EAC000486070470010024001490866BB
:107080007047000000004242034A5368084323F45B
:107090007C1318435060704700100240034A516847
:1070A00021F00301014351607047000000100240CD
:1070B00018B500204FF4A06400903120FFF78EFF38
:1070C0000099491C0091A14201D00028F5D031203F
:1070D000FFF784FF002800D0012018BD10B5FFF78E
:1070E00013FF4FF480342046FFF79AFFFFF7E0FFCD
:1070F000012810D14FF4E0112046FFF7C5FF012011
:10710000FFF7BCFF0020FFF781FF0020FFF7ACFF77
:10711000A011FFF79FFF3920FFF760FF0028FAD08A
:10712000BDE810400220FFF7B9BF7047214910B5F4
:107130001F480860FFF7F0FDFFF7D0FF4FF4A041B4
:107140004FF00060FFF75CFE4FF4E060FFF74EFE8B
:1071500001210846FFF7C0FE04F09AF8FEF7DEF8BA
:1071600005F0C4FF06F034F906F028F801F02AFF14
:1071700006F0E0F805F0EEFFFFF7F6FA62B6FFF76B
:10718000E5FD04F0A1FA00F0C3F90B480078800790
:1071900001D404F07DF80948007818B1BDE810402A
:1071A00000F034BC05F0C2FFBDE8104002F0B6BAF2
:1071B0000050000808ED00E0280000203F000020FB
:1071C00070B52D4C2B4D207805EB80100178890788
:1071D0000CD405F0B5FB012808D1207805EB801010
:1071E000017821F0FC0141F0020101702078401C7F
:1071F000C0B22070FF2801D3002020701F4D2878D6
:1072000080070ED51E48007880070AD52C46AB1C97
:1072100008223021002001F0F3FC207820F0020049
:107220002070184C6078400705D504F06FF860783E
:1072300020F0040060702078400713D52878C1073B
:1072400005D11149097811B140F0020028700F48AA
:10725000AF22A2210368FE2001F0D2FC207820F0AA
:1072600004002070FFF772FD00F066F9BDE8704081
:10727000FFF748B94B0400202E0000200C440020EA
:10728000EA03002028000020400000202400002005
:107290000CB50021264801910091026842F4803229
:1072A00002604FF4A063026802F400320092019A77
:1072B000521C0192009A12B9019A9A42F3D10268C3
:1072C000920333D5012100911A490A6842F0100255
:1072D0000A600A6822F003020A600A6842F00202A9
:1072E0000A604168416041684160416841F48061E1
:1072F0004160416821F47C114160416841F4E8112A
:107300004160016841F08071016001688901FCD52C
:10731000416821F003014160416841F00201416090
:107320004168C1F381010229FAD10CBD00910CBD65
:107330000010024000200240704700000C48016825
:1073400041F00101016041680A4A11404160016851
:10735000094A11400160016821F4802101604168FF
:1073600021F4FE0141604FF41F018160FFF790BFDF
:10737000001002400000FFF8FFFFF6FE0E4910B5B6
:107380000A78FF2813D022F0020040F001000870B4
:1073900000F016F80949002011F8102022F004022C
:1073A00001F81020401CC0B21028F5D310BD42F0E7
:1073B0000200087010BD00005B00002000450020A6
:1073C00070B50F4C4FF000052078C0070BD16D1C35
:1073D000E8B2FF2101F098FAEDB2102DF7D3207832
:1073E00040F001000AE06D1CE8B2002101F08CFAC7
:1073F000EDB2102DF7D3207820F00100207070BD81
:107400005B00002038B50B490422096801EB8003BA
:1074100000216846FFF7DAFA002001466A46C1F10A
:107420000304535CE400A340491CC9B21844042976
:10743000F5D338BDD0ED000838B500224FEA0D0471
:10744000C2F10303DB0021FA03F3A354521CD2B2AE
:10745000042AF5D30449096801EB8002042120467F
:10746000FFF702FB38BD0000D0ED000870B5064CF8
:10747000064D21682868814205D04140012000F076
:1074800007F82868206070BD700000206C000020A4
:107490002DE9FC4101282ED1194A0020194B126810
:1074A0000125064605FA00F434EA010708D1224214
:1074B00000EB40041C44A67002D167787F1C677003
:1074C000401CC0B21028EDD34FF48030884312D155
:1074D00002210D48FFF7A4FB0C4900284FF01003D0
:1074E00008684FF041024FF0810106D0CDE90060FD
:1074F000002001F06BFBBDE8FC81CDE90050F7E70F
:107500006C000020D0440020001001402400002026
:1075100010B501213D20FFF7DFFC01210548FFF7F1
:1075200053FB00F039FB00F057FBBDE8104000F0C2
:1075300021BC00000002300070B51C4D1C4C2878A6
:1075400000EB400101EBC000215CC9070BD12044D6
:1075500000F058FF297801EB410202EBC101625CA7
:1075600060F3000262542878401CC0B228701028D2
:1075700001D3002028700F4C2078000714D501207B
:1075800000F01CF80C490860FFF770FF20784007F6
:1075900001D500F089FA6078C00701D001F03EF80B
:1075A000207820F00800207070BD000060000020EE
:1075B000204400205B0000206C0000202DE9F04FEB
:1075C00091B0012803D0002011B0BDE8F08F95489C
:1075D000DFF854A2954F0078954D964E964C4FF497
:1075E00080484FF480594FF4004B00287ED19348D7
:1075F000007808287AD840213846FFF711FB00B1FF
:107600000120207020213046FFF70AFB00B1012045
:10761000E07010213846FFF703FB00B10120A07194
:1076200002213846FFF7FCFA00B101206072802188
:107630002846FFF7F5FA00B10120207310212846F3
:10764000FFF7EEFA00B10120E07340212846FFF772
:10765000E7FA00B10120A07404215046FFF7E0FAD8
:1076600000B10120607502212846FFF7D9FA00B168
:107670000120207641462846FFF7D2FA00B10120CA
:10768000E07649462846FFF7CBFA00B10120A07703
:1076900040213046FFF7C4FA00B1012084F82100F0
:1076A00059463846FFF7BCFA00B1012084F824009F
:1076B00080213046A5E00120A8E000BF84F82A0020
:1076C0004FF400613046FFF7ABFA00B1012084F8B7
:1076D0002D0000204FEA0D0100EB4002A25C824029
:1076E00041F82020401CC0B2102800E02AE0F3D36B
:1076F00002213046FFF794FA00B1012000041090F7
:10770000DDE900010844DDE902121144084404994E
:1077100008440599084406990844079908440899BB
:107720000844099908440A9908440B9908440C999B
:1077300008440D9908440E9908440F99084410997B
:10774000084441E740213846FFF76AFA00B10120BA
:10775000207020213046FFF763FA00B10120E0706D
:1077600002212846FFF75CFA00B10120A0714146D2
:107770002846FFF755FA00B1012060721021384603
:10778000FFF74EFA00B10120207302213846FFF7BF
:1077900047FA00B10120E07349462846FFF740FA56
:1077A00000B10120A07440213046FFF739FA00B142
:1077B0000120607580212846FFF732FA00B10120D0
:1077C000207610212846FFF72BFA00B10120E07641
:1077D00059463846FFF724FA00B10120A0778021EE
:1077E0003046FFF71DFA00B1012084F82100402146
:1077F0002846FFF715FA00B1012084F8240004217F
:107800005046FFF70DFA00287FF455AF84F82700A3
:107810004FF480613046FFF703FA00283FF44EAF83
:1078200001204BE73F000020001401400008014008
:10783000000C014000100140D044002064000020F2
:107840002DE9FF4F83B0012002901746DFF8A8A171
:107850000A4693F800E05C7893F802C093F803B00E
:1078600019798AF800E08AF801408AF802C08AF89B
:1078700003B08AF804104FF0000903984E464D46B5
:10788000512818D14FF001090020D4461E184FEAA4
:10789000C008767906FA08F845440CEB0008401C4D
:1078A000C0B288F805600428F0D3587A8CF8090033
:1078B0005E7A452A25D0ABF101004FF0000BFA2883
:1078C00004D24C1E032C2ED9F0292CD04B4C442A28
:1078D0007ED0412A7DD100210322084601F002F822
:1078E000002876D046490120A1F800B02070454814
:1078F000407880077DD507B0FF20BDE8F04FFFF747
:107900003DBDBEF1010F74D13E4840782CB1012C31
:107910006FD13C4940F0020002E03A4920F00200F9
:10792000134648705EE0C0B201F00F0400EB80081F
:1079300008EB040CCDF804C0CDF800C0412A25D0D6
:10794000422A56D1B9F1000F17D02F4800EBC802D8
:1079500012F8340001284CD102EBC4014868A84257
:1079600047D14878B04244D102F834B081F801B030
:10797000C1F804B0009800F02FFE0298002838D01B
:1079800000210198FFF758FD42232BE0032200F06D
:10799000A9FF00282DD0B9F1000F18D01A4800EB2C
:1079A000C80010F83410012907D100EBC4014A685F
:1079B000AA4202D14978B14209D0012100F834101D
:1079C00000EBC4014E704D60009800F005FE01E030
:1079D00002E00EE0412305E084F800B00020FFF74C
:1079E000CDFC4423CDE9007AB1210020039A01F0B7
:1079F000C3F807B0BDE8F08F1644002074000020E3
:107A0000660000205B0000202045002070B51A4C65
:107A1000FF21607820F004006070002000F074FF07
:107A20000120FFF7CBFD154D1549164E2860086063
:107A30000FE000BFFFF78AF92078000709D5012081
:107A4000FFF7BCFD286000F09FFA207820F00800C6
:107A5000207030780028EDD10B48007830B1FFF766
:107A6000F7F80A48817821F008018170607820F0E9
:107A700004006070012070BD5B0000206C000020DD
:107A8000700000203F00002041000020280000205E
:107A900010B500F0F1FA00F049FB00F087FBBDE8FB
:107AA000104000F0CBBA00002DE9F041344D354FC5
:107AB00000244FF0C90800BF04EB4400C6197278D7
:107AC000B2B3385CA8B3B07806281DD3012A0DD014
:107AD0002D480078C0B1002070702C480078002834
:107AE00015F8140020F078000CD109E0284800783F
:107AF0000028F0D100232146012000F065FEE9E7CF
:107B000000F1180005F8140022480078800702D51B
:107B10000020FFF733FC15F81400C1071DD020F03A
:107B2000010005F81400601CC0B2002100F0ECFE5A
:107B300013E0FFE715F81400C10708D140F0010079
:107B400005F81400601CC0B2FF2100F0DDFEB07823
:107B5000C82809D001D986F8028004F10104E4B2F2
:107B6000102CA9D3BDE8F081FF20707086F8028048
:107B7000002CF2D104F098F9FF20FFF7FFFBECE7AF
:107B800000450020D0440020AB0000203E00002033
:107B9000740000205B0000200B4810B54FF400413A
:107BA00001801021C1700221817001460748FEF753
:107BB000BBFF07490020087006490870BDE8104067
:107BC000052000F0E3BD00008A0000200010014005
:107BD00061000020620000202DE9FC5F534C48F258
:107BE000520048252080E57021465148FEF79CFF51
:107BF00045F2D2002080E57021464E48FEF794FF02
:107C000040F6E2402080E57021464B48FEF78CFFAD
:107C100004202080E57021464848FEF785FF0021BA
:107C2000474A084601EB4103491CD054134489B22A
:107C3000587098701029F5D3424A002102EBC10414
:107C400012F83130607023F0FE0343F001036060EE
:107C500002F83130491C89B21029EFD3DFF8E8B0BF
:107C60000025E946824605EB850700240BEBC70695
:107C7000381980B20822694600F0A0FC9DF8000087
:107C800006F8340006EBC4019DF80100487000209E
:107C90004A46C1F804A013184FEAC0089B78D1F8EF
:107CA00004C003FA08F3401C634480B24B6004280C
:107CB000F1D3641CA4B2052CDAD36D1CADB2642DD3
:107CC000D1D30120FFF77AFC2049244B08602049DA
:107CD00008602049504681F800A01F490A7883F8BF
:107CE00000A01F4B22F00E02C3F800A01D4BA3F80A
:107CF00000A01D4B83F800A04B7823F003034B70CA
:107D00001A4B18700A701A4A002100BF12F811307D
:107D100023F07F0302F8113002EB4103491C89B2C2
:107D200058701029F2D3BDE8FC9F00008A000020A3
:107D300000080140000C0140001001400014014007
:107D4000D0440020C0540020204500206C000020BA
:107D500070000020650000205B00002074000020FF
:107D600068000020660000206400002063000020FE
:107D70000045002070B5164C40F2A110102520805F
:107D8000E5700226A67021461248FEF7CDFE4AF2A3
:107D90002D302080E570A67021460F48FEF7C4FE06
:107DA00041F210302080E570A67021460B48FEF7A6
:107DB000BBFE0024641CE0B2002100F0A5FDE4B28B
:107DC000102CF7D30648017821F00101017070BD35
:107DD0008A00002000080140000C01400010014012
:107DE0005B0000202DE9F04186466248624D634CFD
:107DF00003784FF4005082000111614E47114FF497
:107E0000805C002B73D15F4B1B78082B6FD8BEF1C1
:107E1000110F6DD2DFE80EF0AC09111924A52D3732
:107E2000404A9F5AA263A7A97E0020212846FEF758
:107E3000FEFE4FF0200178B110E010213046FEF731
:107E4000F6FE4FF0100180B358E001212846FEF7FE
:107E5000EEFE4FF0010108B928464BE028464EE0FF
:107E600080212846FEF7E3FE4FF080010028F5D17F
:107E7000F2E739462046FEF7DAFE394608B92046D1
:107E800038E020463BE020212046FEF7D0FE4FF0B0
:107E900020010028F5D1F2E708212046FEF7C7FEB1
:107EA0004FF008010028ECD1E9E722E00421204648
:107EB000FEF7BDFE4FF004010028E2D1DFE72046C7
:107EC000FEF7B5FE29460028DBD1D8E70121204680
:107ED000FEF7ADFE4FF001010028D2D1CFE73946C1
:107EE0002846FEF7A4FE39460028B7D1B4E719E0CA
:107EF0003EE03046BDE8F041FEF7A2BE3046BDE8A8
:107F0000F041FEF79BBE3046FEF791FE2146002869
:107F1000F4D1EEE739463046FEF789FE39460028AF
:107F2000ECD1E6E7BEF1110F22D2DFE80EF021130B
:107F3000121114100F0E171A0D0C1C0B0A1E09003B
:107F4000E8E7A9E79FE7CAE793E7BFE788E77CE7A9
:107F5000ACE772E769E705460146B0E7154611460A
:107F6000ADE70D46ABE70C46CDE764466146CAE790
:107F7000BDE8F0813F00002000080140000C0140F6
:107F8000001001406400002070B5064C064D2168C9
:107F90002868814205D04140012000F007F8286898
:107FA000206070BD700000206C000020F8B50E4607
:107FB00001283FD10024012707FA04F5B5430FD16A
:107FC000651CE8B2FFF70EFF8DF800500322012177
:107FD000684603F0ABFE02220121684603F0A6FECC
:107FE000641CE4B2102CE7D34FF48030B04321D1AD
:107FF000114841784A0702D521F0040101E041F01F
:10800000040141705FF0040404F00F00401CFFF70E
:10801000E9FE641CE4B2082CF6D311208DF80000B0
:1080200003220121684603F081FE022201216846F5
:1080300003F07CFEF8BD00005B0000200B490878CF
:10804000002812D00A4A13785B1CDBB21370082B8D
:108050000BD30023401E137010F0FF00087004D1F2
:108060004FF400410348FEF7E9BD7047610000206E
:108070006200002000100140264830B40178491CFD
:10808000C9B201700A2942D32349244C0A7822F04C
:1080900004030022027043F008000870104600BF7D
:1080A00000EB400323445D7835B10D7845F00405BD
:1080B0000D709D786D1C9D70401CC0B21028EFD3D0
:1080C0004878174D20F001004870002005EBC003F0
:1080D0005C7834B14C7844F001044C709C78641C9A
:1080E0009C70401CC0B21028F0D30E4B18780028AA
:1080F0000DD00D480188491C89B20180B1F5BC7FC3
:1081000005D302801A7030BC0020FFF737B930BCAD
:1081100070470000650000205B000020D044002074
:10812000C0540020740000206600002070B51D4E71
:108130001D4D002415F8140010F0780F02D131788D
:1081400089072AD505EB44014A78521CD2B24A70FD
:10815000322A22D300224A70410709D440F0040099
:1081600005F81400601CC0B2FF2100F0CDFB14E044
:1081700020F0040005F81400601CC0B2002100F0DB
:10818000C3FB3078800708D415F81400C0F3C3018E
:10819000491E61F3C60005F81400641CE4B2102CFB
:1081A000C8D370BD5B000020004500200B4910B50E
:1081B0000B78D80610D50A480278521CD2B2027049
:1081C000142A09D3074C002222700270064A10209C
:1081D000107023F07000087010BD00005B000020DC
:1081E0005F0000205D0000205E0000202DE9F84FB8
:1081F000002529462A468318D4005B78A340521CE8
:10820000D2B21D44042AF6D38379042B02D9042365
:10821000002201E0002206E08418D600E479B44090
:10822000521C2144D2B29A42F6D3DA06170E427992
:1082300073484FF001094FF0FF3A4FF0000B012A4D
:1082400069D0022A65D10A46B8E0002251B300EB9A
:10825000C2046368AB4220D110F832C04FEA9C03DD
:108260005B009B1E03F0FF080AFA08F301EA03060D
:1082700016F0FF0611D026FA08F606F00106CCF338
:108280004008B04508D066F3410C00F832C084F8CD
:1082900002B06678761C66709943521CD2B2102ADE
:1082A000D4D301E0102A38D30022002931D010F8AD
:1082B00032309E469B0828D1D44624E00CFA03F4C1
:1082C00001EA040616F0FF061BD000EBC20CCDF845
:1082D00000C0CCF8045009EB5308F44668F3870C4F
:1082E000E646DDF800C0DE40A1438CF802B0DDF8C0
:1082F00000C08CF80190F44666F3410C00F832C0DF
:1083000003E09B1CDBB2BB42D8D3521CD2B2102A72
:10831000CBD3BDE8F88F4FF0030A002995D1F8E7D9
:1083200000230AB300EBC3046668AE4217D110F80D
:1083300033C00AEB9C0809FA08F632420FD05FEA14
:10834000CC780BD02CF0010C00F833C084F802B0CC
:1083500094F801C00CF1010C84F801C0B2435B1C1D
:10836000DBB2102BDDD301E0102B27D300241AB38E
:1083700010F834805FEA980317D018E009FA03F682
:10838000324203F101030FD028F0010C00EBC408C6
:1083900063F3870CC8F8045000F834C088F802B0C2
:1083A00088F80190B24302E0DBB2BB42E6D3641C22
:1083B000E4B2102CDBD303E0102C01D2002AAFD1A1
:1083C00000224B465746DC4600EBC208D8F8044072
:1083D000AC420FD110F83260F4070BD107EB9609CD
:1083E00003FA09F4214205D146F0010400F83240B5
:1083F00088F802C0521CD2B2102AE5D389E70000E7
:10840000C054002010B50446401CFFF7EFFE0021C9
:1084100008466218491CC9B250700A29F9D30120D4
:1084200010BD00002DE9FC5F00234A7801270D46AE
:1084300082461C461E46042A11D007DC92B1012A4E
:108440000DD0022A0BD0032A5AD108E00A2A09D0FB
:10845000F02A04D0FD2A05D0FF2A51D102E002F013
:108460000F0100E00121DFF84091002000EB8008BF
:1084700009EBC80C1CF83180B8F1010F14D10CEBDA
:10848000C10BD5F80480DBF804C0C4450CD19BF8BF
:1084900001C095F80080BCEB980F05D1044600EBB5
:1084A00084004618012303E0401CC0B26428DDD3D9
:1084B000DFF8F8803E4898F800C0BCF1000F06D005
:1084C000407880071CD5BAF1010F23D018E0BBB16A
:1084D000BAF1010F03D0BAF1020F06D010E0304616
:1084E000FEF790FF03466A7805E062B10A2A01D0E0
:1084F000FD2A05D100232146022000F065F9074638
:108500003846BDE8FC9F00788007F9D50020FEF7CB
:1085100035FFF5E7E3B900244FEA090204EB8400D4
:1085200002EBC00010F83100012838D004EB8403BE
:1085300009EBC3025818012702F831702B7802EBBF
:10854000C1019B084B706A6806464A6000F044F817
:10855000184801683046FEF76FFF1749601CC87065
:108560006878087100206A68C300DA400B18401C64
:10857000C0B25A710428F6D3287841238008487283
:108580000A20CDE900015122B121002000F0F4FAC7
:10859000002188F800100846FEF7F0FE9FE7641CF3
:1085A000E4B2642CBAD3ABE720450020740000206D
:1085B0005B000020680000201644002030B40C4608
:1085C0000449096801EBC003204630BC0021FEF7D6
:1085D000FDB90000CCED00087CB50A788DF80020CC
:1085E0004A788DF8012000226C464B68D500EB409C
:1085F000A518521CD2B2AB70042AF6D300218DF814
:1086000006108DF807100449096801EBC002082123
:108610002046FEF729FA7CBDCCED00082DE9F04795
:108620000025DFF8F8803E4EA94600BF06EBC504E2
:108630006078A0B316F835100127CA0730D0A178AA
:1086400008293CD3032810D004DC01280DD00228CF
:1086500004D10AE0042808D00A2809D098F80010AC
:1086600001B10F46FF2809D00EE02146012001E0AC
:1086700021460220FFF7D6FE074605E084F8019068
:1086800021460220FFF7CEFE4FB184F80190C4F8D6
:10869000049016F8350020F0FC0006F835000EE0D6
:1086A000A078142811D04B281DD0C82828D0FA282B
:1086B00005D941F0010006F8350084F802906D1CE0
:1086C000EDB2102DB2D3BDE8F087F02060702146E6
:1086D0000120FFF7A7FE88F8000008B1152000E090
:1086E0001320A070EBE7FD20607021460220FFF709
:1086F00099FE88F8000008B14C20F2E74A20F0E724
:10870000FF20607021460220FFF78CFE88F80000F1
:1087100008B1C920E5E7C720E3E70000AC0000206E
:10872000C054002070B51046049A682916D1104C28
:108730004FF000052178490712D40E4991F8021133
:1087400071B1194605F022F9607820F001006070DF
:1087500009480580207820F020002070012070BD9D
:1087600006480580607840F001006070002070BD10
:108770000A000020C4000020160000201A0000207B
:1087800001207047012070470120704770B5002418
:108790000A4A0B4D0B4E4FF40041012808D0052822
:1087A00005D11046FEF74CFA2C700520307070BDD4
:1087B0001046FEF745FA2C700120F7E70010014043
:1087C00062000020610000202DE9FC5F84464048E3
:1087D000424C0D464F1C90F80211984660780126D5
:1087E000DFF8F0B0DFF8F0A023784FF0000940F098
:1087F0000100BCF1010F03D0BCF1020F64D120E0F5
:10880000012A61D1102D5FD2082D5DD25A0749D4BB
:10881000E9B30120FFF7BAFF05EBC50000EB40010B
:1088200001EB0B00407800F003000128F8B237D0CC
:108830000122202105F0AAF8607820F00100607084
:1088400042E0551E032D01D9F02A3DD14FEA18759B
:108850002D0138D0102D04D0302D28D0F02D33D15B
:1088600031E04FEA1842521ED5B2082D2CD25A07D9
:1088700018D461B10120FFF789FF05EBC50000EBBB
:10888000400101EB0B00407800F0030100E009E03B
:108890004FEA1840401EC0B2401C0129C0B2C7D1E7
:1088A0000022C6E7AAF80090607000260CE00C4891
:1088B0000023B1210068CDE90020FAB2184600F08B
:1088C00085F9022600E003263046BDE8FC9F000043
:1088D000C4000020C70100201A0000200A00002068
:1088E0002400002018785A78102805D000060029A6
:1088F00001D10449086070474FF0805000EB0240FE
:10890000F5E70000680000202DE9F05F0246884886
:10891000894D8A4C037887484FF4005847158615CF
:108920004FF400494FF4805A7BBB854B1B78082BD2
:1089300047D8112A71D2DFE802F0F85D0962670EAC
:1089400012191E23292D326C363D4100FF294FF0AC
:1089500010012BD02CE0FF29394603D004E0FF2979
:10896000314601D120465BE020465FE0FF294FF011
:108970002001F9D1F6E7FF294FF00801F4D1F1E722
:10898000FF294FF00401EFD1ECE71AE0FF2941463F
:10899000EAD1E7E7FF294FF00101E5D1E2E7FF293E
:1089A0004946E1D1DEE7FF29394601D1284637E0C3
:1089B00028463BE0FF295146FAD1F7E7FF292DD0A1
:1089C00032E0112A29D2DFE802F035151413121A09
:1089D0001F11100F0E240D0C0B0A0900EEE7E9E73A
:1089E000C9E7C3E7DFE7BAE7B5E7D8E7D2E7CDE7FE
:1089F000C6E7ABE7FF294FF0200111D016E0FF29B1
:108A00004FF001010CD011E0FF294FF0800107D099
:108A10000CE0FF29314603D008E086E03146C5E787
:108A2000BDE8F05FFEF70AB93146C1E7BDE8F05F87
:108A3000FEF706B9FF294FF0200183463AD0FEF732
:108A4000FFF810212846FEF7FBF804212046FEF728
:108A5000F7F841462046FEF7F3F801215846FEF7A5
:108A6000EFF880215846FEF7EBF801212046FEF78B
:108A7000E7F849462046FEF7E3F839462046FEF778
:108A8000DFF831462046FEF7DBF831465846FEF760
:108A9000D7F839462846FEF7D3F820212046FEF7BE
:108AA000CFF808212046FEF7CBF851462846FEF7BE
:108AB000C7F8B9E7FEF7C2F810212846FEF7BEF85E
:108AC00004212046FEF7BAF841462046FEF7B6F8E4
:108AD00001215846FEF7B2F880215846FEF7AEF85D
:108AE00001212046FEF7AAF849462046FEF7A6F8DF
:108AF00039462046FEF7A2F831462046FEF79EF89A
:108B000031465846FEF79AF839462846FEF796F859
:108B100020212046FEF792F808212046FEF78EF825
:108B200051462846FEF78AF878E7BDE8F09F000036
:108B30003F0000200008014000100140000C0140EF
:108B4000640000202DE9FF4114460A46DDE90A656C
:108B500007461946104601F093FF00280AD0030A81
:108B6000C0B2CDE90040CDE902651122394690201E
:108B700001F026F8BDE8FF812DE9FF4114460A46C1
:108B8000DDE90A6507461946104601F079FF00281D
:108B900018D0030AC0B2392B01D0612B04D0CDE923
:108BA00000401F22394608E0502C0DD0512C09D12D
:108BB0000121CDE900101F223946CDE90265902040
:108BC00000F0FEFFBDE8FF810021F2E72DE9FF4143
:108BD00014460A46DDE90A6507461946104601F0C3
:108BE0004FFF00280AD0030AC0B2CDE90040CDE90A
:108BF000026581223946902000F0E2FFBDE8FF8146
:108C00002DE9FF41002404271D464FF0010CA02947
:108C10004FD00EDC11F00F0F77D1524B09110A29FA
:108C20001E6872D2DFE801F0874F7A917C89874D08
:108C30003372A13907297ED2DFE801F0040D182133
:108C40002332290003950094CDE901420023014617
:108C50001A4602206DE0AF2A6DD103950094CDE94C
:108C60000142002301461A46042062E0CDE90225B4
:108C70000023CDE9004C01461A46072059E00721A0
:108C800000E0022101AE009426C6002316E0CDE9E3
:108C900002250023CDE9004701461A46072048E097
:108CA00003950094CDE90142002301461A460920AC
:108CB0003FE001AD062100940EC5002300220146CD
:108CC0004EE00521DEE7102A0CD0A02A14D0A12AFC
:108CD00031D1039600940023CDE9014C01461A4698
:108CE000FE2026E00F21E0B903960094CDE9014172
:108CF00000231A46FE211BE00023CDE9024601466F
:108D000000941A46FE20019413E014E0E02A03D0F8
:108D1000E12A10D1412104E0402102E01F2100E0BE
:108D20002F2103960094CDE9014100231A46014604
:108D3000FE2000F045FFBDE8FF81D02A03D0D12AF4
:108D4000F9D13121EDE73021EBE7082AF3D10028F2
:108D5000F1D101A90320009425C100231A46FE2168
:108D60000720E6E72400002000F076BA00F09ABA67
:108D7000C94301827047C9430182704700290188B5
:108D800002D041F0010101E021F0010101807047B2
:108D90004B4910B5884202D10121C41486E0B0F1DC
:108DA000804F09D0474988420DD101210220FEF7AA
:108DB00087F80021022064E001210846FEF780F8D0
:108DC000002101205DE04049884206D101210420B4
:108DD000FEF776F80021042053E03C49884206D192
:108DE00001210820FEF76CF80021082049E03849ED
:108DF000884206D101211020FEF762F800211020E0
:108E00003FE03449884206D101212020FEF758F87E
:108E10000021202035E03049884202D1012144144C
:108E200044E02E49884202D10121CC043EE02C4985
:108E3000884202D101210C0538E02A49884202D13A
:108E400001214C0532E02849884206D10121402009
:108E5000FEF736F80021402013E02449884206D16D
:108E600001218020FEF72CF80021802009E0204914
:108E700088420AD1841501212046FEF721F80021FD
:108E80002046BDE81040FEF71BB81A49884202D1BF
:108E900001210C040AE01849884202D101214C0446
:108EA00004E0164988420AD101218C042046FEF7CD
:108EB0001FF82046BDE810400021FEF719B810BD8C
:108EC000002C01400004004000080040000C00405D
:108ED000001000400014004000340140004C0140EC
:108EE000005001400054014000180040001C0040A8
:108EF0000020004000400140004401400048014083
:108F000002460020138A92890B4202EA010202D033
:108F1000002A00D001207047002A828901D00A432C
:108F200000E08A438281704730B502881B4B1C4C9D
:108F300098420DD0A0420BD0B0F1804F08D0194D0F
:108F4000A84205D0184DA84202D0184DA84203D11E
:108F500022F070054A882A43154DA84206D0154DC7
:108F6000A84203D022F44075CA882A4302808A8826
:108F700082850A88028598420AD0A04208D00E4A0B
:108F8000904205D00D4A904202D00D4A904201D144
:108F9000097A01860121818230BD0000002C014048
:108FA000003401400004004000080040000C004074
:108FB0000010004000140040004001400044014007
:108FC000004801402DE9F04101211020FDF784FF08
:108FD00001210420FDF780FF01214804FDF764FF13
:108FE000264E304604F0F6FB254C0820254F208005
:108FF0000425E57021463846FDF796FD25800320BF
:10900000A0701820E07021463846FDF78DFD1E49FE
:109010004FF49640086000208880C88008818881CD
:109020000C204881304604F04DFC201D26210170A3
:1090300002274770062181700121C170FDF7A4FE4F
:10904000012240F22551304604F024FC0121304633
:1090500004F0B5FB4021304604F0AEFB2580102023
:10906000E070A7702146094C2046FDF75DFD2046C3
:10907000BDE8F0410421FDF7E1BD000000440040DF
:109080001C000020000801400003002000100140E7
:109090002DE9F0412A4C0021204604F090FB0022EB
:1090A00040F22551204604F0F5FB264C0820264EC0
:1090B00020804820E07021463046FDF735FD04252C
:1090C00025801027E7700120A07021463046FDF76B
:1090D0002BFD2580E77002201C4DA07021462846FC
:1090E000FDF722FD1A4C0421A07820F00600A070A4
:1090F000E07820F00500E0702846FDF7A1FDE0785B
:10910000042120F00200E0703046FDF799FD11497E
:109110000020087048708870C870087148718871A4
:109120000D49087048708870C8700871487188715E
:10913000C8710A4908700A490870BDE8F08100004A
:10914000004400401C0000200008014000100140C5
:1091500028000020460000204D0000204400002090
:1091600045000020F0B531484FF0000103789A0621
:1091700019D42F4A40F2E2451488641CA4B214802A
:10918000AC4210D3118043F02002027053060AD47F
:10919000284B1C78641CE4B21C70142C03D3197087
:1091A00042F0400202704378DA070BD0224A14885A
:1091B000641CA4B21480B4F5FA7F03D3118023F0A9
:1091C000010242701D4C03781D4D22781D4E02F1A4
:1091D00001025F07D2B225D51B4FB7F800C00CF1D2
:1091E000010C1FFA8CFCA7F800C0DF0708D0227022
:1091F000142A16D385F80211317023F00B010FE009
:10920000BCF5A27F0DD923F00502104B0270197036
:109210000F4B19700F490978082902D242F010014A
:109220000170F0BDDF07E2D1F0BD00000A000020B0
:1092300016000020130000201A0000201200002059
:10924000C40000200C0000201800002010000020A6
:10925000110000200F00002010B501218C072046CE
:10926000FFF74EFE01281AD101212046FFF780FDAD
:1092700001F090FAFEF70CFCFDF7E6FC08480178D7
:10928000491CC9B20170FA2905D30021017001F00F
:1092900095FBFDF7D8FCBDE81040FCF749BF10BDB9
:1092A000320000202DE9F05FFB4C01212046FFF742
:1092B00027FE002833D001212046FFF75CFDF74F41
:1092C000B878000778D501F0A1FBB8784FF0010617
:1092D00082464107F2484FF0020B4FF000046CD475
:1092E000F04D297831B101291BD0022932D004294F
:1092F0002ED16EE00821FDF793FC0028B87802D04B
:1093000020F0020021E140F00200B870AC700820AB
:1093100028716C716E7085F807B0AC712E70BDE865
:10932000F09F0821FDF77CFC0028E8790CD002288A
:109330000DD3A879401CC0B2A8710328EFD3EC71FB
:10934000AC7185F800B0EAE7401CE871E7E7EC7122
:109350002C70E4E70821FDF763FC0028A8790ED003
:10936000401CA871E8790228A8790ED303281AD3E3
:10937000EC71AC712879401E2871687810E000B15A
:10938000AC71E879401CE871ECE70D280BD36979E2
:10939000687801446971AC712979A1F101012971E1
:1093A0004FEA40006870287960BB7878000605D5E0
:1093B000687900F081FB07E0A6E12CE03878C0076F
:1093C00002D0687902F0D0FD1420A8700420287023
:1093D000A5E7A978491E11F0FF01A9709FD10821C6
:1093E000FDF71EFC0028A8790ED0401CC0B2A87161
:1093F000C82807D3AC71EC716C712C70B87820F070
:109400000200B870AE708AE7C828F3D2AC71EC7174
:109410006C712C70F6E7F978DFF88C824A074FF010
:1094200007054FF00E0965D598F8011006295CD2A2
:10943000DFE801F0030B152F4CF898F80010C9076E
:1094400072D00421FDF7FAFB75E098F80210491E6E
:1094500011F0FF0188F80210BAD1042185E098F8D4
:109460000210491E11F0FF0188F80210B0D198F8DF
:109470000310C90701D0042190E098F80510C9072E
:1094800003D10421FDF7DAFBC7E004219BE00320B0
:1094900019E198F80210491E11F0FF0188F8021036
:1094A00096D198F80610C90701D00421CDE098F8AC
:1094B0000510C90703D10421FDF7C0FBFEE004211C
:1094C000D3E000BF88F806400420FCE098F80210C2
:1094D000491E11F0FF0188F8021094D1042103E124
:1094E00088F8004088F8054001E088F8004088F8D6
:1094F000014014E798F801C06C4ABCF1060FF4D2A1
:10950000DFE80CF003253A91E4F898F80030DB0727
:1095100019D089074FF0040107D41046FDF78EFBE0
:10952000F87840F0020005E00DE0FDF787FBF878E1
:1095300020F00200F87088F80250082088F8040033
:1095400088F80160EBE62AF00400B870E7E698F8C6
:109550000230A3F1010313F0FF0388F80230C8D1F1
:1095600089077FF57AAF04211046FDF769FB88F87B
:10957000025088F801B0D2E698F80230A3F1010356
:1095800013F0FF0388F80230B3D198F80330DB07FB
:109590000ED089077FF56FAF04211046FDF750FB11
:1095A00088F8029098F80600401C88F8060010E041
:1095B00098F805304FEA8171DB071DD00029BFF60E
:1095C00064AF04211046FDF73BFB88F8025088F891
:1095D000054098F80500C0078BD198F803004008B3
:1095E00088F8030098F80400401E10F0FF0088F887
:1095F00004003FF44CAF92E600294FF0040106DB73
:109600001046FDF71BFBF87840F0020004E0FDF780
:1096100015FBF87820F00200F87088F8025088F8FE
:109620000560D6E766E098F80230A3F1010313F075
:10963000FF0388F8023085D198F80630DB0709D09F
:1096400089077FF532AF04211046FDF7F9FA88F853
:10965000029010E098F805304FEA8171DB0710D0D6
:109660000029BFF62CAF04211046FDF7E9FA88F86F
:10967000025088F8054098F80500C0073FF422AF73
:109680004DE600294FF0040112DB1046FDF7D6FA33
:10969000F97841F0020110E00004004028000020A9
:1096A000000801404D00002046000020001001404D
:1096B000FDF7C4FAF97821F00201F97088F8025038
:1096C00088F80560D7E788F8010028E698F80230A6
:1096D000A3F1010313F0FF0388F802308BD189074F
:1096E0007FF5FCAE04211046FDF7AAFA88F8029037
:1096F0000520E8E798F80200401E10F0FF0088F807
:1097000002003FF4EDAE0AE6034800780028B7D126
:10971000BDE8F05FFDF79ABA3F0000202DE9F05F49
:109720004FF48054DFF838814E4D40F68C2605E02A
:10973000FDF70CFB21464046FDF780FA2888B04231
:10974000F6D9494AA946A2461078934620F002016C
:10975000507820F07F00507021F0FD001070002044
:10976000D0705071107128804048414D017841F00F
:10977000200101705746514644464046FDF75EFAC7
:109780003C48FBF7F4FCC1B201223A4802F0CEFAA1
:109790009BF80010BA4641F001018BF8001001203F
:1097A000274628700026314CFDF7D0FA514638463E
:1097B000FDF746FA2078C00602D52878012806D1A0
:1097C0000A2005F0BEF8761CF6B2642EECD3B9F888
:1097D00000004FF49651884203D3274A00201070AE
:1097E00005E02078C006C5D528780128C2D000261B
:1097F000A9F80060BA46C84689461F4F14E000BF6A
:10980000FDF7A4FA4FF480515046FDF717FA00F027
:1098100035F8B8F80000484506D3207820F020003D
:1098200020703E7001F0FAFC20788006E8D4A07821
:10983000594620F01000A0702E709BF80220112ACB
:1098400006D1CA78082A03D19BF804100A2904D04B
:1098500020F04000A070BDE8F09F40F04000F9E724
:10986000000801403800002055000020280000209A
:109870002D00002029EB0008300000202DE9F047E2
:10988000794D0126A878810676D5DFF8E09120F0A1
:109890002000DFF8DC81A870002789F8007098F8B4
:1098A0000000744C102867D2DFE800F0D9081420BB
:1098B0002C384E5A6774808C98A4B0BD6E48FBF764
:1098C00056FCC1B201226C4802F030FA207840F018
:1098D00001005DE06948FBF74AFCC1B2012267481C
:1098E00002F024FA207840F0020051E06448FBF7CF
:1098F0003EFCC1B20122624802F018FA207840F022
:10990000040045E05F48FBF732FCC1B201225D482C
:1099100002F00CFA207840F0080039E0687800077F
:1099200006D45948FBF723FCC1B20122564805E092
:109930005648FBF71CFCC1B20122544802F0F6F96C
:10994000207840F0100023E05148FBF710FCC1B232
:1099500001224F4802F0EAF9207840F0200017E099
:109960004C48FBF704FCC1B201224A4802F0DEF980
:10997000207840F040000BE071E04748FBF7F7FB30
:10998000C1B20122444802F0D1F9207840F08000B1
:10999000207065E04148FBF7EAFBC1B201223F4875
:1099A00002F0C4F9607840F001003AE03C48FBF76F
:1099B000DEFBC1B201223A4802F0B8F9607840F00B
:1099C00002002EE03748FBF7D2FBC1B20122354836
:1099D00002F0ACF9607840F0040022E03248FBF776
:1099E000C6FBC1B20122304802F0A0F9607840F015
:1099F000080016E02D48FBF7BAFBC1B201222B4844
:109A000002F094F9607840F010000AE02848FBF773
:109A1000AEFBC1B20122264802F088F9607840F01E
:109A2000200060701CE02348FBF7A1FBC1B20122BB
:109A3000204802F07BF9607840F040006070A07828
:109A400030280DD1287820F02000287088F8007088
:109A500089F80070687820F01000687000E0002637
:109A60003046BDE8F08700002800002030000020CC
:109A70002D0000205500002029EB00082DEB0008E8
:109A80002FEB00083AEB000845EB00084FEB00080D
:109A900059EB000864EB000872EB000881EB00084A
:109AA0008CEB00089AEB0008A9EB0008B3EB000868
:109AB000C0EB0008CEEB0008F0B42F492F4A0C7819
:109AC000A02C2CD20B4600271B78DFF8B4C05B1CFF
:109AD000DDB213462B4E9C78DB78542810D05328E7
:109AE00042D18CF800700D7020073DD558073BD54A
:109AF00023F00400D0703046F0BC0421FDF7A0B87C
:109B00008CF800700D7020072ED558072CD443F028
:109B10000400D0703046F0BC0421FDF78FB8A03CA3
:109B2000072C23D2DFE804F004080C1014181C00E2
:109B3000412819D1A12016E0542815D1A22012E005
:109B40002D2811D1A3200EE06D280DD1A4200AE00C
:109B50006F2809D1A52006E0642805D1A62002E0DF
:109B6000652801D1B0200870F0BC7047507820F013
:109B700080005070F8E7000034000020280000202A
:109B8000350000200010014070B506464FF6FF700A
:109B90004AF2010400220FE0B35C58405FF000037A
:109BA00010F0010F4FEA500000D060405B1CDBB2A8
:109BB000082BF5D3521CD2B28A42EDD370BD0000FF
:109BC0002DE9FF4F81B08046DDE90E67DDE91045E4
:109BD000012089460090FDF7B9F8DFF804B45A2156
:109BE000DFF804C48BF80010A5218BF801104FF0AA
:109BF000000E0423FB4A09EBC90A8BF802E0E1B22C
:109C0000D444B8F1090F73D015DCB8F1020F48D075
:109C1000B8F1040F7AD0B8F1070F6BD107208BF899
:109C200004000520D846082F64D2DFE807F06380DF
:109C30008E9CABC9DDFDB8F1900F76D0B8F1FE0F68
:109C400058D1FE208BF8040005205B46B9F1FE0FC9
:109C50006CD0B9F1080F4DD2E34A12F80A20002A5D
:109C600048D000220CEB0205521C6D781D54401C9C
:109C7000D2B2C0B2082AF5D303F800E0401CC0B24B
:109C8000724603F800E0401CC0B22F2C08D078DCEC
:109C9000002CFBD0012CF9D00F2CF7D01F2C29D190
:109CA000F5E3062C26D103208BF8040005245E463C
:109CB00000201118401C49783155641CC0B2E4B230
:109CC0000828F6D3C94801220021036868461033EA
:109CD00001F07EFB9DF80000A0F13001092905D9B3
:109CE0001139192902D96138192804D8022003E052
:109CF000BFE00BE08BE001203055641CE4B2294644
:109D000002F0CEFD3055641CE6B2DFE3052659466D
:109D10008BF8043000201318401C5B788B55761CA0
:109D2000C0B2F6B20828F6D3D0E3C5E0B0E3062C03
:109D30006DD10023D6185B1C767808F80060401CB3
:109D4000DBB2C0B2082BF5D37BE0052C5FD100233A
:109D5000D6185B1C767808F80060401CDBB2C0B2F5
:109D6000082BF5D36DE0082C51D10023D6185B1CCD
:109D7000767808F80060401CDBB2C0B2082BF5D33F
:109D80005FE091E3012C42D1B9F1FF0F0CD000222A
:109D90000CEB0203521C5B7808F80030401CD2B276
:109DA000C0B2082AF4D34CE00023D6185B1C7678A6
:109DB00008F80060401CDBB2C0B2082BF5D340E0CD
:109DC000894A12F80A20002A21D0052C1FD100222E
:109DD0000CEB0203521C5B7808F80030401CD2B236
:109DE000C0B2082AF4D32CE0022C10D1B9F1FF0F35
:109DF0000ED000220CEB0203521C5B7808F80030F6
:109E0000401CD2B2C0B2082AF4D31AE00CE08BE0B6
:109E10000023D6185B1C767808F80060401CDBB283
:109E2000C0B2082BF5D30CE00A2C7DD10023D61844
:109E30005B1C767808F80060401CDBB2C0B2082BCF
:109E4000F5D308F800E0401CC0B208F80070401CD0
:109E5000C0B208F80010401CC6B2002006E0295C21
:109E600008F80610761C401CF6B2C0B2A042F6DB21
:109E700029E309208BF8040005205B4600215618D1
:109E8000491C76781E54401CC9B2C0B20829F6D3CA
:109E900003F800E0401CC0B203F800E0401CC6B26A
:109EA000082C41D10020295C9955761C401CC0B279
:109EB000F6B2A042F7DB09E34B4B90228BF804206B
:109EC00013F80A3005225846002B2DD05FF000030E
:109ED0000CEB03085B1C98F8018000F80280521C10
:109EE000DBB2D2B2082BF3D3FF238354521CD2B27D
:109EF000FE238354521CD2B201238354521CD2B28B
:109F0000039B8354521CD2B2049B8354521CD3B281
:109F1000039AC4F3072A112A05D01F2A6AD0212ADE
:109F200001D0812A00D100E0BAE10BF803E05B1C0C
:109F3000D8B272460BF800E0401CDDF81090DFF854
:109F4000B0E0DC4600F0FF08B9F1310F1DD009DCAC
:109F5000A9F11309B9F1060F17D2DFE809F01616B7
:109F600016FBFBFAB9F1410F6FD008DCC4F1000019
:109F7000B9F1320F14D0B9F1390F06D1A2E0B9F11D
:109F8000510FF1D0B9F1910F78D00CF8086008F1B9
:109F9000010808F0FF000CF80020401CC0B276E178
:109FA0000CF8086008F1010808F0FF0507F0F0065A
:109FB000242F50D01FDC072F61D008DCA7F1020747
:109FC000052F2BD2DFE807F02A4747474700102F1D
:109FD0003CD0212F22D0222F20D0232F1ED13AE097
:109FE0001A030020EA0300200304002020EB0008ED
:109FF00024000020A6E1432F2DD007DC272F3ED0E0
:10A000000CDC252F27D0262F08D124E0442F22D086
:10A01000452F20D0462F1ED0472F30D00A21002CAC
:10A020003BDB94FBF1F30CF805606D1CE8B201FB1F
:10A0300013410CF80030401CC0B201EB8101490013
:10A040000CF80010401CC0B224E066E10CF805706A
:10A050006D1CE8B25DE0A3B26424B3FBF4F00CF82D
:10A0600005606D1CE9B20CF80100491CC9B204FB83
:10A0700010300CF80100491CC8B20BE02FE10CF8BD
:10A0800005606D1CE8B20CF80010401CC0B20CF862
:10A090000020D7E70BF8002082E090FBF1F4761C5B
:10A0A0000CF805606D1CEBB201FB14000CF80340CA
:10A0B0005B1CDBB200EB800040000CF803005B1C73
:10A0C000D8B2E7E70CF8086008F1010808F0FF03D0
:10A0D0000CF803705B1CDEB2092F7AD007DC14D2B7
:10A0E000DFE807F0131F617878781F1F7800222FB0
:10A0F0000BD004DC0A2F7DD0202F06D153E0E02FB7
:10A1000003D0E12F72D0E22F70D00CF80620761C1D
:10A11000F0B20CF80020401C5FFA80F00CF8002030
:10A12000BBE0042C17D0002C26DB00BF0CF8062067
:10A13000761CF0B2E1170CF80020401C04EB116112
:10A14000C0B2C1F307220CF80020401CC0B2214667
:10A150004DE08CE07EE0DEF8000029780078814256
:10A16000E4D00020295C0CF80610761C401CC0B21C
:10A17000F6B2A042F6DBA9E101210CF80610761C2C
:10A18000F1B20CF80120491CC217C9B200EB1262EF
:10A19000C2F307200CF80100491CC8B2614226E056
:10A1A000401CC6B292E1042C08D0082C78D10CEBEC
:10A1B000060010F8031D41F0100101700020295C19
:10A1C0000CF80610761C401CC0B2F6B2A042F6DBBA
:10A1D0007CE10FE020200CF80600761CF0B20CF8B1
:10A1E0000020401CC0B20CF800A056E021E00BF8A3
:10A1F0000010D5E7032C53D12878012803D002287A
:10A2000001D003284CD10CEB0600BF1F00F8017CE5
:10A21000287820300CF80600761CF0B20CF80020EC
:10A22000401CC0B269780CF80010401CC0B2A9787C
:10A23000DDE70CF80620761CF6B2032C30D10020A6
:10A24000295C0CF80610761C401CC0B2F6B2A04285
:10A25000F6DB3BE10CF8086008F1010808F0FF00AC
:10A260000CF80020401CC0B20CF80070B9E70CF8E4
:10A27000086008F1010808F0FF000CF80020DEF883
:10A280000060401C2B783678C0B2B34209D10CF87C
:10A290000020401CC0B20CF80070401CC0B2A6E701
:10A2A000AEE0641E2C2C01DCE1B200E02C210CF8A5
:10A2B0000030401CC0B20CF80070401CC0B20CF85A
:10A2C0000010401CC6B2012006E02A5C0CF80620F3
:10A2D000761C401CF6B2C0B28842F6D9F6E00CF803
:10A2E000086008F1010808F0FF000CF80070401C3D
:10A2F000C6B2022F04D00CF80620761CF0B20DE78F
:10A30000032C7DD10020295C0CF80610761C401C23
:10A31000C0B2F6B2A042F6DBD8E00CF8086008F153
:10A32000010808F0FF000CF80020401CC0B20CF837
:10A330000020401CC0B20CF80010401CC0B20BF84A
:10A3400000702DE700F803E05B1CDAB2049BF446D2
:10A35000612B26D006DC312B08D0322B01D0392BD3
:10A3600004D17FE0622B66D0912B7BD000F802C035
:10A37000521CD2B28654521CD2B200F802C0521CF7
:10A38000D2B200F802C0521CD2B200F802C0521C75
:10A39000D2B28754521CD2B20BF80210521CD6B261
:10A3A00094E08654521CD1B25EB3012E28D10A2CFF
:10A3B00026D14754491CC9B22A784254491CC9B213
:10A3C0006A784254491CC9B2AA784254491CC9B29D
:10A3D000EA784254491CC9B22A794254491CC9B28C
:10A3E0000022AB18521C5B794354491CD2B2C9B24B
:10A3F000042AF6D395F809200BF80120491C01E046
:10A400007FE001E0CEB261E0052C7AD14754491CCF
:10A41000C9B22A784254491CC9B26A784254491CCC
:10A42000C9B2AA784254491CC9B2EA784254491CBC
:10A43000C9B22A79E0E700F802C0521CD1B2042C5C
:10A440005FD14754491CC9B24654491CCEB20021C1
:10A450006A5C8255761C491CC9B2F6B20429F7D34E
:10A4600034E0FFE700F802C0521CD2B28654521CFE
:10A47000D2B28754521CD2B200F802C0521CD2B2DF
:10A4800000F802C0521CD2B200F802A082E713E02A
:10A49000002556196D1C76781E54401CEDB2C0B2D2
:10A4A000082DF6D3FFF7E8BB302C05D0312C03D0B4
:10A4B000402C01D0412C24D11A54401CC0B20BF8BE
:10A4C0000010401CC6B2009800281AD0301FC1B23C
:10A4D0005C468BF8031004220B4802F0F7FDA055F0
:10A4E000761CF0B25B212154401CC0B2B52121542E
:10A4F00005B0401CBDE8F04FC1B20122024801F096
:10A5000015BC05B0BDE8F08F1A0300209B4B4FF43B
:10A510008072C11A98427CD053DC994BA0EB0301A6
:10A52000984277D02DDC974AA0EB0201904272D07E
:10A5300018DCA2F10602A0EB020190426CD00ADC0A
:10A540009149401869D0B0F5007F67D0A0F5007040
:10A55000013873D19AE0012971D0022970D0052900
:10A560006CD1ACE0F8296CD006DC01296AD0022954
:10A5700069D0032962D1AFE0F92979D0FA295DD1F8
:10A58000B7E040F20313A1F20310994271D010DC3E
:10A5900091427FD006DC01296DD002296CD00329BD
:10A5A0006FD1CAE0A1F5807101396ED0012968D15F
:10A5B00083E0072865D2DFE800F064D69193D8DA0B
:10A5C000DC00B1F5FB7F6FD019DCFB296DD00EDC10
:10A5D000F8296BD006DC012969D0F62968D0F72963
:10A5E0004FD18AE0F9296ED0FA294AD18EE0FC39A0
:10A5F000062946D2DFE801F08E909294969840F2B8
:10A60000F643A1F2F640994270D022DC40F2F633D4
:10A6100005E0B0E08BE057E03EE0A0E033E0A1F2DF
:10A62000F63099426FD00FDCA1F58071F7396BD00D
:10A63000FF296AD0914224D12B20704721E02FE0DE
:10A6400037E051E042E045E001286FD0022818D100
:10A6500083E04E4A811A904224D00EDCA0F57A4065
:10A6600004386CD04A49401812D0022809D115E0AC
:10A670003DE076E00EE05CE05DE001291BD00429BE
:10A680001FD0FF20D9E70120D7E721E00220D4E73F
:10A690000320D2E70420D0E70520CEE70620CCE750
:10A6A0000720CAE70820C8E74DE031E027E019E0BD
:10A6B00021E00920C1E70A20BFE70B20BDE70C20FD
:10A6C000BBE70D20B9E71CE00E20B6E70F20B4E78A
:10A6D0001020B2E71120B0E71220AEE71320ACE75C
:10A6E0001420AAE71520A8E71620A6E72FE01720D8
:10A6F000A3E71820A1E719209FE71A209DE71B2058
:10A700009BE71C2099E724E01FE01AE01D2094E756
:10A710001E2092E71F2090E720208EE721208CE763
:10A7200022208AE7232088E7242086E713E02520DB
:10A7300083E7262081E727207FE728207DE729205F
:10A740007BE72A2079E72C2077E72D2075E72E205C
:10A7500073E72F2071E730206FE731206DE732205B
:10A760006BE7332069E7342067E7352065E736205B
:10A7700063E7372061E738205FE700000BE71A0046
:10A7800001E61A0009E41A00FF1DE5FF03F80F00B7
:10A790000402F1FF2DE9F0477648774FDFF8DC81BE
:10A7A0000178774C4FF4FA794FF48050002511B1BD
:10A7B000A178C90654D4734E3188491C89B23180BE
:10A7C000494557D3704982460D7001464046FCF713
:10A7D0002EFA38B151464046FCF730FA607840F026
:10A7E00020000AE069484078400707D451464046B7
:10A7F000FCF726FA607820F020006070644800784A
:10A8000010B9A07840061CD560784FF4E671420676
:10A810000CD531805F490A78521CD2B20A70062AE0
:10A8200028D320F0400060700D7023E0820603D42E
:10A83000358020F0400002E0318040F04000607040
:10A8400018E03878800701D5358013E05248007849
:10A8500010B14FF4F07001E040F27710308009E061
:10A86000064601464046FCF7E2F918B1314640463B
:10A87000FCF7E4F9627810060AD548480178491CCB
:10A88000C9B201707D2903D3057022F08000607089
:10A89000617888070CD542480288521C92B2028027
:10A8A0004A4505D3058021F0020040F004006070A5
:10A8B0003C4841F288320188491C89B201809142AA
:10A8C0001DD3394E0580307800F10100C0B23070E0
:10A8D0003978890703D5217841F0040121700328D4
:10A8E0000DD32078800701D400F0D2FC6078C00737
:10A8F00004D1A078400601D400F090FC3570217896
:10A90000C8061CD529480288521C92B20280142A1B
:10A9100015D3274B8E0614D4058021F010001D702E
:10A9200020F0C000207024482249027801EB8211F7
:10A930000A7822F0FC020A704FF0FF010170BDE8B6
:10A94000F0876678F70608D4058021F010002070A3
:10A95000A07840F02000A070F1E740F6C417BA429A
:10A96000EDD326F010026270058021F010002070F7
:10A970001D70E4E774000020EA0300200008014095
:10A98000280000203A000020330000205B00002057
:10A9900092000020310000203F0000203500002000
:10A9A0003C000020380000202C0000203600002051
:10A9B000300000204B0400202F000020124810B56A
:10A9C0000478E10716D0417A491CC9B241723C298A
:10A9D00010D300214172027A0346521CD2B2027295
:10A9E000DB793C2A07D35B1CDAB20172C271182AE8
:10A9F00000D3C17110BD142AFCD1032BFAD144F04D
:10AA00000201017010BD00000C44002070B5164C0E
:10AA10002078C00721D11548007800281DD114489E
:10AA20008278910719D4134B1978B9B1C578EE071C
:10AA300005D042F00402827025F00302C2700F4A72
:10AA40000D4DA1F1010110782D5CE57000F10100C0
:10AA500010704FF001002070197070BD5107FCD5C7
:10AA600022F00401817070BD460000204D000020DE
:10AA70002800002045000020AA03002044000020F8
:10AA800002460020722A70D02ADC662A6ED014DCBE
:10AA9000612A43D0622A47D0632A58D0652A42D11E
:10AAA00071296FD06FDC40296ED06EDC11296DD01A
:10AAB00020296CD0302935D1B3E0672A68D0682AC4
:10AAC00067D0712A2FD1252970D070DC0A296FD068
:10AAD0006FDC06296ED008296DD0092922D1DBE16F
